:020000040800F2
:100000000008002059660008616600086366000861
:100010006566000867660008696600080000000061
:100020000000000000000000000000006B660008F7
:100030006D660008000000006F66000849140008A3
:10004000736600087366000873660008736600082C
:10005000736600087366000873660008736600081C
:10006000736600087366000873660008736600080C
:10007000D5120008736600087366000873660008EE
:1000800073660008736600087366000873660008EC
:1000900073660008736600087366000873660008DC
:1000A00073660008736600087366000873660008CC
:1000B000710A00087366000873660008736600081A
:1000C00073660008736600087366000873660008AC
:1000D0007366000873660008736600087D110008E7
:1000E000736600087366000873660008DFF80CD0BA
:1000F00006F090FF004800470101000800080020BA
:1001000006F02AFB01F018F900F00AFA00F08CF969
:1001100000F0C8F900F0EDF800F058FA00F092FF96
:10012000B2E000F0C1FE5949086059480068002853
:100130004AD0584800F072F90020574908600BE097
:1001400000F0B2FE5149096808445049086052481D
:100150000068401C504908604F480068B0F57A7F3D
:10016000EEDD4A4800684FF47A7190FBF1F04B499C
:10017000086008460068A0F596704949086000F0DC
:10018000A9F801204749086004E04FF4007146488F
:1001900004F0B5FD434800680028F6D14FF4007123
:1001A000414804F0AEFD4148414908604148424998
:1001B000086000BF414800680028FBD10220404988
:1001C00008600020324908603D48006801282BD1B2
:1001D0003C48374908603C48374908602F48006868
:1001E0009B382A490968884209DA284801682B485F
:1001F00000689B30814202DA0120344908603348AC
:10020000006888B129482A49086031482A490860AD
:100210001E48006822490968884205DA02202849F8
:1002200008600020294908602548006802282BD171
:1002300025481F49086023481F490860174800687F
:100240009B3812490968884209DA10480168134846
:1002500000689B30814202DA01201C4908601B487B
:10026000006888B11A4812490860104812490860AD
:10027000064800680A490968884205DA01201049E1
:1002800008600020114908604BE700007C00002056
:10029000140000203F420F0018000020040000203E
:1002A000100000206800002000080140000070419C
:1002B0002800002000000C423C0000205C000020D0
:1002C000080000200000204100008C420C000020AB
:1002D00000005C4210B50121880705F0B3FB012244
:1002E0001146900705F0C9FB0121880705F070FE53
:1002F00010BD00B589B00121042004F00BFF0121DD
:10030000084604F014FF0120ADF8040003208DF826
:10031000060018208DF8070001A9384804F044FCB5
:100320000220ADF8040003208DF8060018208DF897
:10033000070001A9314804F037FC1C208DF80000AB
:1003400000208DF801008DF8020001208DF80300D7
:10035000684604F060FB2320ADF818000020ADF8DB
:100360001A00ADF81E0040F69F70ADF81C0006A9FB
:100370004FF0804005F00AF86020ADF80800012039
:10038000ADF80A000420ADF80C000020ADF80E0016
:10039000ADF810000820ADF812004001ADF81400CF
:1003A0000020ADF8160002A94FF0804005F02BF8B0
:1003B0000821C80605F076FC02A94FF0804005F040
:1003C00064F80821C80605F076FC0121880705F0CD
:1003D00039FCFFF77FFF09B000BD10B500214FF0D9
:1003E000804005F02FFB00220121880705F045FB26
:1003F0000121880705F0ECFD10BD00000008014058
:1004000010B5002107E042F63C0200BF1300A2F144
:100410000102FBD1491C8142F5D310BD00E0401E12
:100420000028FCD17047000008B50121042004F029
:1004300071FE0121022004F07AFEC020ADF8000018
:1004400004208DF803006946134804F0ADFB022335
:100450001A460321114805F0A8FB01210F4805F0B9
:10046000F1FA47F6FF700D492431088008BD0021DC
:100470000B48007820B90120094A1070002070470D
:1004800006482430008847F6FF72111A1046034AC6
:10049000243210800846F2E70008014000040040C2
:1004A0001C00002008B50121082004F033FE0121C2
:1004B000042004F03CFEC020ADF8000004208DF8BC
:1004C00003006946134804F06FFB02231A46032118
:1004D000114805F06AFB01210F4805F0B3FA47F611
:1004E000FF700D492431088008BD00210B480078B9
:1004F00020B90120094A10700020704706482430B6
:10050000008847F6FF72111A1046034A2432108001
:100510000846F2E7000C0140000800401D000020E2
:1005200000B591B01F4800F09DF800211E48CDE9AC
:100530000E100C910D910A910B91084608911B49E0
:10054000CDE906010020CDE904010290039018488E
:1005500018490022184BCDE90001124800F089F833
:10056000164800F07FF800200F49CDE90E010C90ED
:100570000D900A900B90014608900C48CDE90610AA
:1005800000200A49CDE90401029003900C480D496E
:1005900000220D4BCDE90001084800F06AF811B0C7
:1005A00000BD0000D00000200094B1400040AF40EA
:1005B000B81E85EB51B89E3F000024407801002012
:1005C0007B14AE47E17A943F0000444008B5012116
:1005D000102004F09FFD0420ADF8000003208DF8EA
:1005E000020010208DF8030069461D4804F0DCFA73
:1005F0000820ADF8000003208DF8020010208DF8CF
:1006000003006946164804F0CFFA1020ADF8000048
:1006100003208DF8020010208DF803006946104871
:1006200004F0C2FA2020ADF8000003208DF802008B
:1006300010208DF803006946094804F0B5FA04213A
:10064000074804F05CFB2021054804F058FB082112
:10065000034804F054FB1021014804F050FB08BD8E
:100660000010014010B50446A821204606F0FBF812
:1006700010BD2DE9F04F09AC94E8F04FC0E900231C
:10068000C0E90245C0E90467C0E90689C0E908ABD2
:10069000C0F828E0DDE9131CC0E9261CDDE9151CC3
:1006A000C0E9241CDDE9171CC0E9281CBDE8F08F57
:1006B0002DE9F04F8DB0824616461F4600BF00BFA1
:1006C00000BF00BF00BFDDE91610CAE916103246B0
:1006D0003B46DDE9160106F0CAF9CAE91C010AF138
:1006E0007800C0E90467DAE91AB3DAE91C015A466E
:1006F000CDE9020106F0BBF9CDE90401DAE900B366
:100700005A4606F0BAF9CDE90A0100221346DAE9A1
:1007100028B1584606F09CFA34D0DAE928B3DAE971
:100720001A015A46CDE9040106F0A6FA0FD20022BA
:100730001346DAE91CB1584606F09EFA02D20020B0
:10074000014601E0DAE91C01CAE91C011AE0DAE914
:10075000280181F00041CDE90401DAE91AB35A46D3
:1007600006F08AFA0ED200221346DAE91CB1584686
:1007700006F082FA02D2DAE91C0101E0002001460B
:10078000CAE91C0100221346DAE906B1584606F010
:100790005FFA0BD1DAE91CB3DAE902015A46CDE976
:1007A000040106F06AF904460D4623E0DAE906B3CF
:1007B000DAE91C015A46CDE9040106F049FA17D8D6
:1007C000DAE9060181F00041CDE90401DAE91CB360
:1007D0005A4606F03DFA0BD8DAE91CB3DAE9020111
:1007E0005A46CDE9040106F048F904460D4601E0F9
:1007F00000242546DAF82800F8B1DAE920B35A4691
:1008000000204FF0804106F038F9CDE90001DAE927
:1008100022B35A4606F02EF9CDE90201DAE91EB3F9
:100820005A4606F083F8CDE90401DAE904B35A46E2
:1008300006F023F9804689461EE0DAE91AB35A46E3
:1008400000204FF0804106F018F9CDE90001DAE907
:100850001CB35A4606F00EF9CDE90201DAE918B3E5
:100860005A4606F063F8CDE90401DAE904B35A46C2
:1008700006F003F980468946DAE914B3DAE916018D
:100880005A46CDE9020106F0F2F8CDE90401DAE9B1
:1008900024B35A4606F0F1F8CDE90601DAE914B3BB
:1008A0005A4600204FF0804106F0E7F8CDE90001FC
:1008B000DAE916B35A4606F0DDF8CDE90201DAE9C5
:1008C00012B35A4606F032F8CDE90401DAE926B34C
:1008D0005A4606F0D2F8CDE9080122462B46DDE95A
:1008E0000A0106F023F842464B46CDE9000106F026
:1008F0001DF8CDE90201DDE9062306F017F8CDE980
:100900000401DDE9082306F011F8CAE90E01DAE96D
:100910000EB3DAE90C015A46CDE9040106F006F8F7
:10092000CAE9100100221346DAE908B1584606F078
:100930008FF920D0DAE908B3DAE910015A46CDE997
:10094000040106F099F904D2DAE90801CAE91001B4
:1009500011E0DAE9080181F00041CDE90401DAE9AA
:1009600010B35A4606F088F905D2DAE9080181F099
:100970000041CAE91001DAE91001CAE90C01DAE91B
:100980001401CAE91201DAE91610CAE91410DAE909
:100990001A01CAE91801DAE91C01CAE91A010AF1C7
:1009A0007801D1E90201CAE91E010AF17801D1E911
:1009B00004010AF17802C2E902010DB0BDE8F08F2E
:1009C00070B505460C46002C01DD204600E0604273
:1009D0000446002D0CDA0821A64804F090F91021F5
:1009E000A44804F08EF9604285420CDA65420AE0C0
:1009F0000821A04804F085F910219E4804F07FF9F1
:100A0000A54200DD2546002D01DD284600E06842B4
:100A10004FF08041888670BD70B505460C46002CAD
:100A200001DD204600E060420446002D0CDA202162
:100A3000904804F066F904218E4804F060F96042A1
:100A400085420CDA65420AE020218A4804F057F911
:100A50000421884804F055F9A54200DD2546002D03
:100A600001DD284600E068424FF08041088770BDF4
:100A70002DE9FC474FF0000900240121880705F00B
:100A8000AAFA00287ED00121880705F0A1FAFFF715
:100A9000EEFC814640F2EE2009FB00F07649096841
:100AA00090FBF1F5284606F05AF874490860FFF704
:100AB000DEFC064606F053F80546714801682846F4
:100AC00005F0DCFE6E4908606E48006806F0ADF87F
:100AD00005460E466948006806F0A7F807463A46FC
:100AE0000B466948CDE90056FFF7E2FD6648D0E9BC
:100AF0001021104606F061F8644908604FF47A61ED
:100B000062480068FFF788FFFFF7EFFC044640F2F9
:100B1000EE2060435849096890FBF1F5284606F03D
:100B20001EF85B490860FFF7E0FC064606F017F880
:100B3000054658480168284605F0A0FE554908605A
:100B40005548006806F071F805460E4650480068A2
:100B500006F06BF807463A460B465048CDE900567A
:100B6000FFF7A6FD4D49D1E91021104606F025F802
:100B70004B4908604FF47A6149480068FFF720FF4D
:100B8000484800E03CE00068401C464908600846D0
:100B90000068B0F5166F05D10020434908600120B8
:100BA000404908604148006870B141480068401CF5
:100BB0003F49086008460068B0F5FA7F04D101207B
:100BC00008600020394908603A480068401C3949EB
:100BD00008600846006805F0CBFF0746364A374BE9
:100BE00005F04BFF054606F05BF8354908603549CE
:100BF0003348006806F070F802D200202D490860E2
:100C0000BDE8FC8710B500204FF080410887042123
:100C1000184804F076F82021164804F072F810BD48
:100C200010B54FF47A60410608870421114804F09A
:100C300068F820210F4804F064F810BD10B50020BA
:100C40004FF08041888608210A4804F05AF81021A4
:100C5000084804F056F810BD10B54FF47A6041060C
:100C600088860821034804F04CF81021014804F05C
:100C700048F810BD00100140200000202400002092
:100C80003000002028000020D00000202C00002090
:100C900038000020440000203C00002078010020A3
:100CA00040000020580000205C0000206800002068
:100CB0006000002050000020FCA9F1D24D62603F8E
:100CC0004C0000200000704208B50121492004F0CA
:100CD00021FA4FF4C070ADF8000010208DF8030029
:100CE00003208DF8020069469E4803F05DFF022054
:100CF000ADF8000010208DF8030003208DF80200ED
:100D00006946994803F050FF0120ADF80000042027
:100D10008DF803006946944803F046FF08BD10B5FE
:100D20000346002105E0002200E0521C082AFCDBFB
:100D3000491C9942F7DB10BD10B501460022002086
:100D400000BF21E011F0800F03D00123874C236006
:100D500002E00023854C23604FEA41634FEA1361B0
:100D60004FEA40634FEA13604FF00103804C236069
:100D7000804BD3F800310BB140F0010000237C4CD4
:100D8000236002F10103DAB2082ADBDB10BDF0B503
:100D900005460E46174600207749086045F0800555
:100DA0002846FFF7C9FF002405E00020FFF7C4FF35
:100DB0003055601CC4B2BC42F7DB01206E490860AC
:100DC000F0BD30B505460C4600206B4908604FF079
:100DD0000200FFF7A4FF25F080052846FFF7ACFFCF
:100DE0002046FFF7A9FFAA20FFF799FF01206349DA
:100DF000C1F89C0130BD00B543E001205E490860A8
:100E00004FF000005D49C1F8A0014FF001005749C3
:100E100008604FF01E00FFF782FF5948017801205B
:100E2000FFF7CFFF574801780220FFF7CAFF564867
:100E300001780320FFF7C5FF17210420FFF7C1FF4A
:100E400000210520FFF7BDFF50210620FFF7B9FF65
:100E500014210720FFF7B5FFC0210820FFF7B1FFDD
:100E600012210920FFF7ADFF02210A20FFF7A9FF99
:100E700001210B20FFF7A5FF0C2244490020FFF7BA
:100E800086FF424840783E4909788842B5D13F48BC
:100E900080783C4909788842AFD13C48C0783A49CB
:100EA00009788842A9D100BD10B5002400BF28E010
:100EB000022237492120FFF76AFF3548007834497C
:100EC000497800EB0120334908603348006809681D
:100ED0000844314908602F48006830490968884251
:100EE00003D22C4800682D4908602A4800682C4924
:100EF0000968884203D92748006829490860601CAE
:100F0000C4B2284800688442D2D3234800682549E7
:100F10000968B0FBF1F02449086000201E49086010
:100F200021480068214908601F48006810BD30B59D
:100F300004460020104908604FF00200FFF7EFFE62
:100F400044F080042046FFF7F7FE0020FFF7F4FE90
:100F50000546AA20FFF7E3FE01200849C1F89C01DD
:100F6000284630BD00180140000C01408481214218
:100F7000A0012342008021429C0123420000234221
:100F80006C0000206D0000206E000020C8020020D0
:100F900074000020780000208800002084000020D9
:100FA00080000020700000208C00002090000020B5
:100FB000002101604160704710B54268521CC9238E
:100FC00092FBF3F403FB142203689A4200D110BD94
:100FD00000F108024368D1544268521CC92392FBB5
:100FE000F3F403FB1422426000BFF0E710B5D0E930
:100FF00000239A4200D110BD00F1080203689A5CF8
:101000000A700268521CC92392FBF3F403FB1422FA
:10101000026000BFEFE70146D1E90020904204DD05
:1010200008790A78801AC0B27047D1E9002090424E
:1010300006DAD1E90002801AC0F1C900C0B2F3E7B4
:101040000020F1E700B591B00121082004F062F81A
:101050000121880404F06BF80121084604F04DF8E2
:101060004FF48060ADF8400018208DF84300032055
:101070008DF8420010A93D4803F096FD4FF4006042
:10108000ADF8400004208DF8430010A9374803F064
:101090008BFD374804F0B4FF4FF4E1300C90002092
:1010A000ADF83C000C20ADF83A000020ADF8380057
:1010B000ADF83600ADF834000CA92D4804F0E3FF7C
:1010C00040F225512A4805F052F940F225512848AE
:1010D00005F080F9012240F22551254805F06BF812
:1010E000244805F091F92248001D00902248019003
:1010F0001020029000200390049080200590002092
:1011000006900790089009900A906946194805F0E2
:101110001DFA01220221174805F04FFA0122802111
:10112000134805F06DF827208DF82C0003208DF86A
:101130002D0004208DF82E0001208DF82F000BA823
:1011400003F069FC0C208DF82C0004208DF82D0094
:101150008DF82E0001208DF82F000BA803F05BFC0A
:101160000121034805F01BF811B000BD000C01403F
:10117000004800401C000240D402002010B540F29C
:1011800025511E4805F0FCF8012836D140F22551C2
:101190001A4805F0ECF840F22551184805F01AF904
:1011A000164805F06DF816490870164800780128B1
:1011B00011D1084600781449144A1278885413480B
:1011C0000078401C114908700D4800782F2802D182
:1011D00001200F4908700A480078232802D1012015
:1011E000084908700A480078012806D100200849FB
:1011F0000870084908700349087010BD0048004095
:101200009800002095000020DC03002094000020BE
:101210009600002097000020F8B506460F460024EF
:10122000002500BF05E0315D4048FFF7C5FE601CAA
:10123000C4B2BC42F7DB3E4805F0CAF900BB3B48EC
:10124000FFF7E9FE0546322D00DD3225002409E0D6
:1012500069463648FFF7CAFE9DF800003549085533
:10126000601CC4B2AC42F3DB0021314805F099F9AF
:1012700029462F4805F0AAF901212D4805F091F9DA
:10128000F8BD38B5002500242848FFF7C4FE044601
:10129000142C01DD142401E004B938BD002509E057
:1012A00069462248FFF7A2FE9DF8000021494855F3
:1012B000681CC5B2A542F3DB00211D4805F071F999
:1012C00021461B4805F082F90121194805F069F90A
:1012D00000BFE2E710B5202005F09CF938B12020CE
:1012E00005F08DF9202005F0A8F9FFF7CAFF10BD21
:1012F0000FB410B5A2B025A8219001A8219A249975
:1013000005F09AFE84B20020219000BF0748FFF745
:1013100082FEC0F13200A042F8DDE1B201A8FFF781
:101320007BFF22B010BC5DF814FB00000803002016
:101330001C000240D402002038B505F00DFA01214E
:10134000792003F0E7FE0121FE4803F0FCFCFE4992
:10135000B1F1807F00D31DE021F07F40401E4FF0AF
:10136000E022506150170F22002807DA13071D0EE4
:10137000F64B00F00F04241F1D5503E013071C0E4D
:10138000F34B1C5400BF00204FF0E0229061072077
:10139000106100BF0120EF4908700020EE4908806D
:1013A000EE490870EE490870EE490870EE49087081
:1013B000EE490870EE490870EE490870EE49087071
:1013C0003820ADF8000003208DF8020010208DF8C1
:1013D00003006946E94803F0E7FB0320ADF800008D
:1013E0008DF8020010208DF803006946E44803F0F0
:1013F000DBFB40F2EF40ADF8000003208DF8020067
:1014000010208DF803006946DE4803F0CDFB4FF451
:101410006040ADF8000003208DF8020010208DF828
:1014200003006946D84803F0BFFB47F67060ADF88B
:10143000000003208DF8020010208DF8030069469B
:10144000CF4803F0B1FB38BD2DE9F047C248008812
:10145000401CC149088008460088B0F57A7F06D153
:1014600000200880BD480078401CBC490870BB487B
:1014700000780A2807D10020B8490870B8480078D9
:10148000401CB7490870B6480078062807D10020EC
:10149000B3490870B3480078401CB2490870B1489D
:1014A00000780A2807D10020AE490870AE480078BD
:1014B000401CAD490870AC4800780A2802D10020D1
:1014C000A9490870B148006805F063FB85B2B048CF
:1014D000006805F05EFB86B2A81905F049FB0746D7
:1014E0004FF06632AB4B05F0C8FA814605F084FB3D
:1014F00084B20A2094FBF0F100FB11409B49087074
:10150000642094FBF0F100FB11400A2190FBF1F004
:10151000974908704FF47A7094FBF0F100FB11408A
:10152000642190FBF1F0934908704FF47A7094FBBA
:10153000F0F091490870322C12D04B2C10D0782C3E
:101540000ED0F02C0CD0B4F5EA7F09D0B4F5FA7FB8
:1015500006D0B4F53C7F03D0A4F540705E3807D1C7
:101560004FF400718C4803F0CAFB01208B490860DE
:101570008A48006820B94FF40071874803F0C1FB26
:101580007448007801287CD1744800780A2859D220
:10159000DFE800F00559AFD6D5D4D3D2D1D000BF03
:1015A00000BF4FF40041784803F0ABFB00BF00BF21
:1015B0004FF40051744803F0A4FB00BF00BF20218A
:1015C0006F4803F09CFB00BF00BF4FF400716C48F4
:1015D00003F097FB00BF00BF4FF40061684803F0C1
:1015E0008EFB00BF00BF4FF40051654803F087FB3E
:1015F00000BF00BF4FF48061614803F082FB00BF71
:1016000000BF4FF480515E4803F07BFB00BF00BF7A
:101610004FF480415A4803F074FB00BF00BF4FF401
:101620008041594803F06DFB00BF00BF4021544882
:1016300003F067FB00BF00BF1021514803F061FBBE
:1016400000BF00BF31E300BF00BF4FF400414E4870
:1016500003F055FB00BF00BF4FF400514A4803F0B0
:101660004EFB00BF00BF2021454803F048FB00BFF0
:1016700000BF4FF40071424803F043FB00BF00BFBE
:1016800000E0FDE34FF400613D4803F038FB00BF8C
:1016900000BF4FF400513A4803F031FB00BF00BFD8
:1016A0004FF48061364803F02CFB00BF00BF4FF4BD
:1016B0008051334803F025FB00BF00BF4FF4804149
:1016C0002F4803F01EFB00BF00BF4FF480412E489F
:1016D00003F015FB00BF00BF4021294803F00FFBBA
:1016E00000BF00BF1021264803F00BFB00BF00BF66
:1016F000DBE200BF00BF4FF40041234803F001FBD1
:1017000000BF00BF4FF400511F4803F0FAFA00BFBA
:1017100000BF20211A4803F0F2FA00BF00BF4FF4C7
:101720000071174803F0EBFA00BF00BF4FF40061EF
:10173000134835E065E20BE2B6E161E10CE1B7E0A8
:1017400062E00000000230004019010018ED00E0E6
:1017500000E400E0A00000209A0000209C0000208F
:101760009D0000209E0000209F000020A10000207E
:10177000A2000020A3000020A4000020000C0140D3
:10178000001801400014014000100140300000200A
:10179000440000206666D63F000801406800002033
:1017A00003F0AFFA00BF00BF4FF40051FE4803F052
:1017B000A6FA00BF00BF4FF48061FB4803F0A1FA16
:1017C00000BF00BF4FF48051F74803F09AFA00BF02
:1017D00000BF4FF48041F44803F093FA00BF00BF0C
:1017E0004FF48041F14803F08AFA00BF00BF402166
:1017F000ED4803F086FA00BF00BF1021EA4803F06D
:1018000080FA00BF00BF50E200BF00BF4FF40041AC
:10181000E64803F074FA00BF00BF4FF40051E348FC
:1018200003F06FFA00BF00BF2021DF4803F067FA22
:1018300000BF00BF4FF40071DB4803F062FA00BF45
:1018400000BF4FF40061D84803F05BFA00BF00BF4F
:101850004FF40051D44803F052FA00BF00BF4FF4D8
:101860008061D14803F04DFA00BF00BF4FF48051B2
:10187000CD4803F046FA00BF00BF4FF48041CA488C
:1018800003F03FFA00BF00BF4FF48041C74803F0A8
:1018900036FA00BF00BF4021C34803F032FA00BF50
:1018A00000BF1021C04803F02CFA00BF00BFFCE1CC
:1018B00000BF00BF4FF40041BC4803F020FA00BF56
:1018C00000BF4FF40051B94803F019FA00BF00BF40
:1018D0002021B54803F013FA00BF00BF4FF4007198
:1018E000B14803F00EFA00BF00BF4FF40061AE48EC
:1018F00003F007FA00BF00BF4FF40051AA4803F0FD
:10190000FEF900BF00BF4FF48061A74803F0F9F96A
:1019100000BF00BF4FF48051A34803F0F2F900BFAD
:1019200000BF4FF48041A04803F0EBF900BF00BFB7
:101930004FF480419D4803F0E4F900BF00BF40210F
:10194000994803F0DCF900BF00BF1021964803F06E
:10195000D8F900BF00BFA8E100BF00BF4FF40041AD
:10196000924803F0CCF900BF00BF4FF400518F48FC
:1019700003F0C7F900BF00BF20218B4803F0BFF977
:1019800000BF00BF4FF40071874803F0BAF900BFF1
:1019900000BF4FF40061844803F0B3F900BF00BFFB
:1019A0004FF40051804803F0AAF900BF00BF4FF484
:1019B00080617D4803F0A3F900BF00BF4FF4805160
:1019C000794803F09EF900BF00BF4FF4804176488C
:1019D00003F097F900BF00BF4FF48041734803F054
:1019E00090F900BF00BF40216F4803F08AF900BFA3
:1019F00000BF10216C4803F084F900BF00BF54E120
:101A000000BF00BF4FF40041684803F07AF900BFFF
:101A100000BF4FF40051654803F073F900BF00BFE9
:101A20002021614803F06BF900BF00BF4FF4007143
:101A30005D4803F066F900BF00BF4FF400615A48EB
:101A400003F05FF900BF00BF4FF40051564803F0A8
:101A500056F900BF00BF4FF48061534803F04FF9BF
:101A600000BF00BF4FF480514F4803F04AF900BF58
:101A700000BF4FF480414C4803F043F900BF00BF62
:101A80004FF48041494803F03CF900BF00BF4021BA
:101A9000454803F036F900BF00BF1021424803F06B
:101AA00030F900BF00BF00E100BF00BF4FF40041AC
:101AB0003E4803F024F900BF00BF4FF400513B48FB
:101AC00003F01DF900BF00BF2021374803F017F9CC
:101AD00000BF00BF4FF40071334803F012F900BF9C
:101AE00000BF4FF40061304803F009F900BF00BFA8
:101AF0004FF400512C4803F002F900BF00BF4FF42F
:101B00008061294803F0FDF800BF00BF4FF4805109
:101B1000254803F0F6F800BF00BF4FF4804122488B
:101B200003F0EFF800BF00BF4FF480411F4803F0FF
:101B3000E6F800BF00BF40211B4803F0E2F800BFF9
:101B400000BF1021184803F0DCF800BF00BFACE074
:101B500000BF00BF4FF40041144803F0D2F800BFAB
:101B600000BF4FF40051114803F0CBF800BF00BF95
:101B700020210D4803F0C3F800BF00BF4FF40071EF
:101B8000094803F0BEF800BF00BF4FF400610648EB
:101B900003F0B7F800BF00BF4FF40051024803F054
:101BA000AEF800BF00BF03E0001801400010014084
:101BB0004FF48061FE4803F0A4F800BF00BF4FF46B
:101BC0008051FB4803F09DF800BF00BF4FF48041F7
:101BD000F74803F096F800BF00BF4FF48041F54886
:101BE00003F08FF800BF00BF4021F14803F089F8EF
:101BF00000BF00BF1021EE4803F083F800BF00BF14
:101C000053E000BF00BF4FF40041EA4803F077F80B
:101C100000BF00BF4FF40051E64803F072F800BF68
:101C200000BF2021E24803F06AF800BF00BF4FF474
:101C30000071DF4803F065F800BF00BF4FF400619A
:101C4000DB4803F05EF800BF00BF4FF40051D848F6
:101C500003F055F800BF00BF4FF48061D44803F093
:101C600050F800BF00BF4FF48051D14803F049F84D
:101C700000BF00BF4FF48041CD4803F042F800BFE1
:101C800000BF4FF48041CB4803F03BF800BF00BFDA
:101C90004021C74803F035F800BF00BF1021C448F9
:101CA00003F02FF800BF00BF00BF00BFC24800789C
:101CB0000A2850D2DFE800F005509BEFEAE9E8E798
:101CC000E6E500BF00BF0121BC4803F01AF800BFE1
:101CD00000BF0221B94803F014F800BF00BF202163
:101CE000B64803F00CF800BF00BF8021B34803F0F2
:101CF00008F800BF00BF0121AD4803F000F800BFA5
:101D000000BF1021AE4802F0FAFF00BF00BF08215B
:101D1000AB4802F0F6FF00BF00BF0221A44802F06A
:101D2000F0FF00BF00BF2021A54802F0EAFF00BF7E
:101D300000BF0421A14802F0E4FF00BF00BF08215A
:101D40009E4802F0DEFF00BF00BF40219B4802F02A
:101D5000D8FF00BF00BFB7E200BF00BF0121974816
:101D600002F0CDFF00BF00BF0221944802F0C7FF80
:101D700000BF00BF2021914802F0C1FF00BF00BF9B
:101D800080218E4802F0BDFF00BF00BF01218848BE
:101D900002F0B5FF00BF00BF1021894802F0AFFF7D
:101DA00000BF00BF0821864802F0ABFF00BF00BFA4
:101DB00002217F4802F0A5FF00BF00BF202180481C
:101DC00002F09FFF00BF00BF04217C4802F097FF94
:101DD00000BF00BF0821794802F091FF00BF00BF9B
:101DE0004021764802F08DFF00BF00BF6CE200BFCB
:101DF00000BF0121714802F084FF00BF00BF022133
:101E00006E4802F07EFF00BF00BF20216B4802F049
:101E100076FF00BF00BF8021684802F070FF00BF5E
:101E200000BF0121624802F06CFF00BF00BF10211B
:101E3000634802F064FF00BF00BF0821604802F061
:101E400060FF00BF00BF0221594802F05AFF00BFE7
:101E500000BF20215A4802F054FF00BF00BF0421F8
:101E6000564802F04CFF00BF00BF0821534802F063
:101E700048FF00BF00BF4021504802F042FF07E08A
:101E800024E2D6E18AE13EE1F2E0A6E04EE002E0A3
:101E900000BF00BF18E200BF00BF0121474802F0A9
:101EA0002EFF00BF00BF0221444802F02AFF00BFFE
:101EB00000BF2021414802F022FF00BF00BF802167
:101EC0003E4802F01EFF00BF00BF0121384802F06B
:101ED00018FF00BF00BF1021394802F010FF00BFFB
:101EE00000BF0821364802F00CFF00BF00BF0221EE
:101EF0002F4802F006FF00BF00BF2021304802F04B
:101F000000FF00BF00BF04212C4802F0F8FE00BF14
:101F100000BF0821294802F0F4FE00BF00BF4021A5
:101F2000264802F0EEFE00BF00BFCDE100BF00BFBB
:101F30000121224802F0E3FE00BF00BF02211F483A
:101F400002F0DDFE00BF00BF20211C4802F0D7FEDA
:101F500000BF00BF8021194802F0D3FE00BF00BFC0
:101F60000121134802F0CDFE00BF00BF102114482C
:101F700002F0C5FE00BF00BF0821114802F0C1FEFB
:101F800000BF00BF02210A4802F0BBFE00BF00BF35
:101F900020210B4802F0B5FE00BF00BF0421074816
:101FA00002F0AFFE00BF00BF082104480AE00000B5
:101FB0000018014000100140A10000200014014061
:101FC000000C014002F09BFE00BF00BF4021FE4814
:101FD00002F097FE00BF00BF76E100BF00BF012105
:101FE000F94802F08CFE00BF00BF0221F64802F063
:101FF00088FE00BF00BF2021F34802F080FE00BF32
:1020000000BF8021F04802F07CFE00BF00BF01212C
:10201000EE4802F076FE00BF00BF1021EC4802F04F
:102020006EFE00BF00BF0821E94802F068FE00BF55
:1020300000BF0221E54802F064FE00BF00BF20217E
:10204000E34802F05EFE00BF00BF0421DE4802F05C
:1020500058FE00BF00BF0821DB4802F052FE00BF5F
:1020600000BF4021D84802F04CFE00BF00BF2BE16A
:1020700000BF00BF0121D44802F043FE00BF00BFF3
:102080000221D14802F03DFE00BF00BF2021CE4812
:1020900002F035FE00BF00BF8021CB4802F031FEC8
:1020A00000BF00BF0121C94802F02BFE00BF00BFE6
:1020B0001021C74802F023FE00BF00BF0821C4481A
:1020C00002F01DFE00BF00BF0221C04802F019FE51
:1020D00000BF00BF2021BE4802F013FE00BF00BFBA
:1020E0000421B94802F00DFE00BF00BF0821B64828
:1020F00002F007FE00BF00BF4021B34802F001FE1E
:1021000000BF00BFE0E000BF00BF0121AE4802F009
:10211000F6FD00BF00BF0221AB4802F0F0FD00BF9A
:1021200000BF2021A84802F0EAFD00BF00BF8021C7
:10213000A54802F0E6FD00BF00BF0121A34802F060
:10214000DEFD00BF00BF1021A14802F0D8FD00BF96
:1021500000BF08219E4802F0D4FD00BF00BF02214D
:102160009A4802F0CEFD00BF00BF2021984802F03F
:10217000C8FD00BF00BF0421934802F0C0FD00BFAE
:1021800000BF0821904802F0BCFD00BF00BF402105
:102190008D4802F0B6FD00BF00BF95E000BF00BF54
:1021A0000121894802F0ADFD00BF00BF0221864831
:1021B00002F0A7FD00BF00BF2021834802F09FFD71
:1021C00000BF00BF8021804802F09BFD00BF00BF20
:1021D00001217E4802F095FD00BF00BF10217C4820
:1021E00002F08DFD00BF00BF0821794802F089FD93
:1021F00000BF00BF0221754802F083FD00BF00BF91
:102200002021734802F07DFD00BF00BF04216E480D
:1022100002F077FD00BF00BF08216B4802F071FD9E
:1022200000BF00BF4021684802F06BFD00BF00BF47
:102230004AE000BF00BF0121634802F060FD00BF1B
:1022400000BF0221604802F05CFD00BF00BF2021FA
:102250005D4802F054FD00BF00BF80215A4802F0E3
:1022600050FD00BF00BF0121584802F04AFD00BFE9
:1022700000BF1021564802F042FD00BF00BF0821F8
:10228000534802F03EFD00BF00BF02214F4802F05C
:1022900038FD00BF00BF20214D4802F032FD00BFD5
:1022A00000BF0421484802F02CFD00BF00BF0821F8
:1022B000454802F026FD00BF00BF4021424802F021
:1022C00020FD00BF00BF00BF02F08BBB414800787B
:1022D000022877D1404800780A2859D2DFE800F078
:1022E0000559BCFEFDFCFBFAF9F800BF00BF4FF436
:1022F00000413A4802F005FD00BF00BF4FF4005115
:10230000364802F0FEFC00BF00BF20212F4802F03B
:10231000F6FC00BF00BF4FF400712C4802F0F1FC46
:1023200000BF00BF4FF40061284802F0E8FC00BF86
:1023300000BF4FF40051254802F0E3FC00BF00BF8E
:102340004FF48061214802F0DCFC00BF00BF4FF475
:1023500080511E4802F0D3FC00BF00BF4FF4804103
:102360001A4802F0CEFC00BF00BF4FF480411B486A
:1023700002F0C7FC00BF00BF4021144802F0C1FCBE
:1023800000BF00BF1021114802F0BBFC00BF00BF1E
:102390000FE300BF00BF4FF40041104802F0AFFC54
:1023A00000BF00BF4FF400510C4802F0A8FC00BF72
:1023B00000BF2021054802F0A2FC00BF00BF4FF47F
:1023C00000710DE0F9E30000001401400018014025
:1023D000000C0140A00000209D00002000100140E2
:1023E000FE4802F08EFC00BF00BF4FF40061FB48C6
:1023F00002F085FC00BF00BF4FF40051F74802F027
:1024000080FC00BF00BF4FF48061F44802F079FC0B
:1024100000BF00BF4FF48051F04802F070FC00BFD5
:1024200000BF4FF48041ED4802F06BFC00BF00BFDD
:102430004FF48041EA4802F062FC00BF00BF402137
:10244000E64802F05CFC00BF00BF1021E34802F048
:1024500058FC00BF00BFACE200BF00BF4FF400411A
:10246000DF4802F04EFC00BF00BF4FF40051DC48D3
:1024700002F047FC00BF00BF2021D84802F03FFC1B
:1024800000BF00BF4FF40071D44802F038FC00BF19
:1024900000BF4FF40061D14802F033FC00BF00BF21
:1024A0004FF40051CD4802F02CFC00BF00BF4FF4A8
:1024B0008061CA4802F025FC00BF00BF4FF4805184
:1024C000C64802F01CFC00BF00BF4FF4804106E08C
:1024D0001BE2C6E16CE117E1C2E06DE018E0BF4825
:1024E00002F00FFC00BF00BF4FF48041BC4802F077
:1024F00006FC00BF00BF4021B84802F002FC00BF4C
:1025000000BF1021B54802F0FCFB00BF00BF50E245
:1025100000BF00BF4FF40041B14802F0F0FB00BF24
:1025200000BF4FF40051AE4802F0EBFB00BF00BF0C
:102530002021AA4802F0E3FB00BF00BF4FF4007166
:10254000A64802F0DEFB00BF00BF4FF40061A348C5
:1025500002F0D7FB00BF00BF4FF400519F4802F0CC
:10256000D0FB00BF00BF4FF480619C4802F0C9FB64
:1025700000BF00BF4FF48051984802F0C0FB00BF7D
:1025800000BF4FF48041954802F0BBFB00BF00BF85
:102590004FF48041924802F0B2FB00BF00BF4021DF
:1025A0008E4802F0AEFB00BF00BF10218B4802F046
:1025B000A8FB00BF00BFFCE100BF00BF4FF400411B
:1025C000874802F09CFB00BF00BF4FF400518448D5
:1025D00002F095FB00BF00BF2021804802F08FFB76
:1025E00000BF00BF4FF400717C4802F08AFB00BFBF
:1025F00000BF4FF40061794802F083FB00BF00BFC9
:102600004FF40051754802F07CFB00BF00BF4FF44F
:102610008061724802F075FB00BF00BF4FF480512B
:102620006E4802F06CFB00BF00BF4FF480416B4866
:1026300002F067FB00BF00BF4FF48041684802F022
:1026400060FB00BF00BF4021644802F058FB00BFA0
:1026500000BF1021614802F054FB00BF00BFA8E199
:1026600000BF00BF4FF400415D4802F048FB00BFCF
:1026700000BF4FF400515A4802F043FB00BF00BFB7
:102680002021564802F03BFB00BF00BF4FF4007111
:10269000524802F036FB00BF00BF4FF400614F48C4
:1026A00002F02FFB00BF00BF4FF400514B4802F077
:1026B00028FB00BF00BF4FF48061484802F01FFBB9
:1026C00000BF00BF4FF48051444802F018FB00BF28
:1026D00000BF4FF48041414802F013FB00BF00BF30
:1026E0004FF480413E4802F00CFB00BF00BF402188
:1026F0003A4802F006FB00BF00BF1021374802F045
:1027000000FB00BF00BF54E100BF00BF4FF4004119
:10271000334802F0F6FA00BF00BF4FF400513048D2
:1027200002F0EFFA00BF00BF20212C4802F0E7FAC8
:1027300000BF00BF4FF40071284802F0E2FA00BF6A
:1027400000BF4FF40061254802F0DBFA00BF00BF74
:102750004FF40051214802F0D4FA00BF00BF4FF4FB
:1027600080611E4802F0CBFA00BF00BF4FF48051D9
:102770001A4802F0C4FA00BF00BF4FF48041174866
:1027800002F0BFFA00BF00BF4FF48041144802F0CE
:10279000B8FA00BF00BF4021104802F0B2FA00BFF3
:1027A00000BF10210D4802F0ACFA00BF00BF00E1ED
:1027B00000BF00BF4FF40041094802F0A0FA00BF7B
:1027C00000BF4FF40051064802F099FA00BF00BF65
:1027D0002021024802F093FA00BF03E000180140F4
:1027E0000010014000BF4FF40071FE4802F089FA6A
:1027F00000BF00BF4FF40061FA4802F080FA00BF4A
:1028000000BF4FF40051F74802F07BFA00BF00BF51
:102810004FF48061F34802F074FA00BF00BF4FF438
:102820008051F04802F06BFA00BF00BF4FF48041C6
:10283000EC4802F066FA00BF00BF4FF48041EA485E
:1028400002F05DFA00BF00BF4021E64802F059FAED
:1028500000BF00BF1021E34802F053FA00BF00BFE1
:10286000A7E000BF00BF4FF40041DF4802F049FA83
:1028700000BF00BF4FF40051DB4802F042FA00BF36
:1028800000BF2021D74802F03AFA00BF00BF4FF442
:102890000071D44802F035FA00BF00BF4FF4006168
:1028A000D04802F02EFA00BF00BF4FF40051CD48CF
:1028B00002F027FA00BF00BF4FF48061C94802F060
:1028C00020FA00BF00BF4FF48051C64802F017FA4B
:1028D00000BF00BF4FF48041C24802F012FA00BFAF
:1028E00000BF4FF48041C04802F00BFA00BF00BFA8
:1028F0004021BC4802F005FA00BF00BF1021B948D2
:1029000002F0FFF900BF00BF53E000BF00BF4FF46B
:102910000041B54802F0F3F900BF00BF4FF4005189
:10292000B14802F0EEF900BF00BF2021AD4802F02F
:10293000E6F900BF00BF4FF40071AA4802F0E1F9C8
:1029400000BF00BF4FF40061A64802F0DAF900BFF3
:1029500000BF4FF40051A34802F0D3F900BF00BFFD
:102960004FF480619F4802F0CCF900BF00BF4FF4E4
:1029700080519C4802F0C3F900BF00BF4FF4804172
:10298000984802F0BEF900BF00BF4FF4804196485E
:1029900002F0B7F900BF00BF4021924802F0B1F940
:1029A00000BF00BF10218F4802F0ABF900BF00BF8D
:1029B00000BF00BF8D4800780A2850D2DFE800F041
:1029C00005509BE6FCFBFAF9F8F700BF00BF0121B8
:1029D000874802F096F900BF00BF0221844802F048
:1029E00090F900BF00BF2021814802F088F900BFA4
:1029F00000BF80217E4802F084F900BF00BF0121A2
:102A0000784802F07CF900BF00BF1021794802F03D
:102A100078F900BF00BF0821764802F072F900BFC4
:102A200000BF02216F4802F06AF900BF00BF2021F9
:102A3000704802F066F900BF00BF04216C4802F044
:102A400060F900BF00BF0821694802F05AF900BFD1
:102A500000BF4021664802F054F900BF00BFB6E253
:102A600000BF00BF0121624802F049F900BF00BF6A
:102A700002215F4802F043F900BF00BF20215C48FB
:102A800002F03DF900BF00BF8021594802F039F93A
:102A900000BF00BF0121534802F031F900BF00BF61
:102AA0001021544802F02DF900BF00BF0821514801
:102AB00002F027F900BF00BF02214A4802F01FF9C7
:102AC00000BF00BF20214B4802F01BF900BF00BF30
:102AD0000421474802F013F900BF00BF0821444811
:102AE00002F00DF900BF00BF4021414802F009F992
:102AF00000BF00BF6BE200BF00BF01213C4802F0F5
:102B000000F900BF00BF0221394802F0FAF800BF07
:102B100000BF2021364802F0F2F800BF00BF80213C
:102B2000334802F0ECF800BF00BF01212D4802F04D
:102B3000E8F800BF00BF10212E4802F0E2F800BF05
:102B400000BF08212B4802F0DCF800BF00BF0221C3
:102B5000244802F0D4F800BF00BF2021254802F02D
:102B6000D0F800BF00BF0421214802F0C8F800BF20
:102B700000BF08211E4802F0C4F800BF00BF40217A
:102B80001B4802F0BEF800BF00BF20E200BF00BF3C
:102B90000121174802F0B3F800BF00BF022114481A
:102BA00002F0AFF800BF00BF2021114806E0C3E1EA
:102BB00077E12BE1DFE093E047E00AE202F09FF8E3
:102BC00000BF00BF80210A4802F09BF800BF00BF91
:102BD0000121044802F095F800BF00BF102105480C
:102BE0000AE000000018014000100140A20000208F
:102BF00000140140000C014002F083F800BF00BF48
:102C00000821F84802F07DF800BF00BF0221F64815
:102C100002F075F800BF00BF2021F24802F071F801
:102C200000BF00BF0421F14802F069F800BF00BFF7
:102C30000821EE4802F065F800BF00BF4021EB48D4
:102C400002F05FF800BF00BFC1E100BF00BF01217B
:102C5000E64802F054F800BF00BF0221E34802F04A
:102C60004EF800BF00BF2021E04802F048F800BF46
:102C700000BF8021DD4802F044F800BF00BF012101
:102C8000D94802F03EF800BF00BF1021D54802F03D
:102C900038F800BF00BF0821D24802F032F800BF68
:102CA00000BF0221D04802F02AF800BF00BF202157
:102CB000CC4802F026F800BF00BF0421CB4802F048
:102CC00020F800BF00BF0821C84802F018F800BF74
:102CD00000BF4021C54802F014F800BF00BF76E1F4
:102CE00000BF00BF0121C14802F009F800BF00BFCA
:102CF0000221BE4802F005F800BF00BF2021BB48FA
:102D000001F0FDFF00BF00BF8021B84801F0F9FFCE
:102D100000BF00BF0121B44801F0F3FF00BF00BFB6
:102D20001021B04801F0EDFF00BF00BF0821AD4801
:102D300001F0E5FF00BF00BF0221AB4801F0DFFF5B
:102D400000BF00BF2021A74801F0DBFF00BF00BF8C
:102D50000421A64801F0D5FF00BF00BF0821A34809
:102D600001F0CFFF00BF00BF4021A04801F0C9FF24
:102D700000BF00BF2BE100BF00BF01219B4801F055
:102D8000C0FF00BF00BF0221984801F0BAFF00BF9A
:102D900000BF2021954801F0B2FF00BF00BF802195
:102DA000924801F0AEFF00BF00BF01218E4801F044
:102DB000A8FF00BF00BF10218A4801F0A2FF00BF9A
:102DC00000BF0821874801F09AFF00BF00BF022121
:102DD000854801F094FF00BF00BF2021814801F029
:102DE00090FF00BF00BF0421804801F08AFF00BFB0
:102DF00000BF08217D4801F084FF00BF00BF4021D3
:102E00007A4801F07EFF00BF00BFE0E000BF00BFD6
:102E10000121764801F073FF00BF00BF0221734813
:102E200001F06DFF00BF00BF2021704801F067FF77
:102E300000BF00BF80216D4801F063FF00BF00BFED
:102E40000121694801F05BFF00BF00BF1021654808
:102E500001F057FF00BF00BF0821624801F051FF99
:102E600000BF00BF0221604801F049FF00BF00BF62
:102E700020215C4801F045FF00BF00BF04215B48F2
:102E800001F03DFF00BF00BF0821584801F039FFA5
:102E900000BF00BF4021554801F033FF00BF00BF15
:102EA00095E000BF00BF0121504801F02AFF00BF9C
:102EB00000BF02214D4801F024FF00BF00BF2021C8
:102EC0004A4801F01CFF00BF00BF8021474801F0C5
:102ED00018FF00BF00BF0121434801F012FF00BFEF
:102EE00000BF10213F4801F00CFF00BF00BF0821C8
:102EF0003C4801F006FF00BF00BF02213A4801F044
:102F0000FEFE00BF00BF2021364801F0FAFE00BFE0
:102F100000BF0421354801F0F4FE00BF00BF0821C6
:102F2000324801F0EEFE00BF00BF40212F4801F003
:102F3000E8FE00BF00BF4AE000BF00BF01212B48F0
:102F400001F0DDFE00BF00BF0221284801F0D9FEDC
:102F500000BF00BF2021254801F0D1FE00BF00BF07
:102F60008021224801F0CDFE00BF00BF01211E4894
:102F700001F0C7FE00BF00BF10211A4801F0C1FEDA
:102F800000BF00BF0821174801F0BBFE00BF00BF13
:102F90000221154801F0B3FE00BF00BF20211148F7
:102FA00001F0AFFE00BF00BF0421104801F0A9FEF0
:102FB00000BF00BF08210D4801F0A3FE00BF00BF05
:102FC00040210A4801F09DFE00BF00BF00BF01F094
:102FD00008BD0748007803287ED1064800780A28F3
:102FE00064D209E0000C01400018014000140140C7
:102FF000A00000209E000020DFE800F00559AFFE91
:10300000FDFCFBFAF9F800BF00BF4FF40041FE4899
:1030100001F077FE00BF00BF4FF40051FA4801F005
:1030200070FE00BF00BF2021F84801F06AFE00BF1B
:1030300000BF4FF40071F54801F063FE00BF00BF10
:103040004FF40061F14801F05AFE00BF00BF4FF499
:103050000051EE4801F055FE00BF00BF4FF4806103
:10306000EA4801F04EFE00BF00BF4FF48051E74830
:1030700001F047FE00BF00BF4FF48041E34801F07C
:103080003EFE00BF00BF4FF48041DF4801F039FE33
:1030900000BF00BF4021DD4801F033FE00BF00BF8C
:1030A0001021DA4801F02DFE00BF00BF02E300BF8F
:1030B00000BF4FF40041D44801F021FE00BF00BF23
:1030C0004FF40051D04801F01AFE00BF00BF20218C
:1030D000CE4801F016FE00E0EBE300BF00BF4FF466
:1030E0000071CA4801F00DFE00BF00BF4FF400613F
:1030F000C64801F004FE00BF00BF4FF40051C348B2
:1031000001F0FFFD00BF00BF4FF48061BF4801F038
:10311000F8FD00BF00BF4FF48051BC4801F0F1FD45
:1031200000BF00BF4FF48041B84801F0E8FD00BF88
:1031300000BF4FF48041B44801F0E1FD00BF00BF83
:103140004021B24801F0DBFD00BF00BF1021AF48B5
:1031500001F0D7FD00BF00BFACE200BF00BF4FF4DD
:103160000041A94801F0CDFD00BF00BF4FF4005160
:10317000A54801F0C6FD00BF00BF2021A34801F013
:10318000C0FD00BF00BF4FF40071A04801F0B7FDC3
:1031900000BF00BF4FF400619C4801F0B2FD00BFCA
:1031A00000BF4FF40051994801F0ABFD00BF00BFD4
:1031B0004FF48061954801F0A4FD00BF00BF4FF4BB
:1031C0008051924801F09DFD00BF00BF4FF4804147
:1031D0008E4801F094FD00BF00BF4FF480418A4843
:1031E00001F08DFD00BF00BF402106E00EE2B9E115
:1031F00064E10FE1B5E060E00BE0844801F081FD9F
:1032000000BF00BF1021814801F07BFD00BF00BF5F
:1032100050E200BF00BF4FF400417B4801F06FFD5A
:1032200000BF00BF4FF40051774801F06AFD00BFB6
:1032300000BF2021754801F064FD00BF00BF4FF4BE
:103240000071724801F05DFD00BF00BF4FF40061E6
:103250006E4801F056FD00BF00BF4FF400516B48AF
:1032600001F04FFD00BF00BF4FF48061674801F0DF
:1032700048FD00BF00BF4FF48051644801F041FD9C
:1032800000BF00BF4FF48041604801F038FD00BF2F
:1032900000BF4FF480415C4801F031FD00BF00BF2A
:1032A00040215A4801F02DFD00BF00BF10215748B2
:1032B00001F027FD00BF00BFFCE100BF00BF4FF4DD
:1032C0000041514801F01BFD00BF00BF4FF4005109
:1032D0004D4801F014FD00BF00BF20214B4801F014
:1032E00010FD00BF00BF4FF40071484801F009FD18
:1032F00000BF00BF4FF40061444801F002FD00BF71
:1033000000BF4FF40051414801F0FBFC00BF00BF7B
:103310004FF480613D4801F0F4FC00BF00BF4FF462
:1033200080513A4801F0EDFC00BF00BF4FF48041EE
:10333000364801F0E4FC00BF00BF4FF48041324842
:1033400001F0DFFC00BF00BF4021304801F0D7FC96
:1033500000BF00BF10212D4801F0D3FC00BF00BF0B
:10336000A8E100BF00BF4FF40041274801F0C7FCAF
:1033700000BF00BF4FF40051234801F0C2FC00BF62
:1033800000BF2021214801F0BCFC00BF00BF4FF46A
:1033900000711E4801F0B5FC00BF00BF4FF4006192
:1033A0001A4801F0AEFC00BF00BF4FF400511748AF
:1033B00001F0A7FC00BF00BF4FF48061134801F08B
:1033C0009EFC00BF00BF4FF48051104801F099FCF3
:1033D00000BF00BF4FF480410C4801F090FC00BFDB
:1033E00000BF4FF48041084801F08BFC00BF00BFD4
:1033F0004021064801F085FC00BF00BF10210348B2
:1034000001F07FFC00BF03E0001001400018014004
:1034100000BF4FE100BF00BF4FF40041FE4801F084
:1034200070FC00BF00BF4FF40051FB4801F069FC85
:1034300000BF00BF2021F94801F063FC00BF00BFBE
:103440004FF40071F54801F05CFC00BF00BF4FF481
:103450000061F24801F055FC00BF00BF4FF400517D
:10346000EE4801F04EFC00BF00BF4FF48061EB4816
:1034700001F045FC00BF00BF4FF48051E74801F068
:1034800040FC00BF00BF4FF48041E44801F037FC2E
:1034900000BF00BF4FF48041DF4801F032FC00BFA5
:1034A00000BF4021DD4801F02CFC00BF00BF10210F
:1034B000DA4801F026FC00BF00BFFBE000BF00BF00
:1034C0004FF40041D44801F01AFC00BF00BF4FF494
:1034D0000051D14801F013FC00BF00BF2021CF48AC
:1034E00001F00FFC00BF00BF4FF40071CB4801F0AA
:1034F00008FC00BF00BF4FF40061C84801F0FFFBAB
:1035000000BF00BF4FF40051C44801F0FAFB00BFF8
:1035100000BF4FF48061C14801F0F3FB00BF00BF62
:103520004FF48051BD4801F0ECFB00BF00BF4FF4E9
:103530008041BA4801F0E3FB00BF00BF4FF4804177
:10354000B54801F0DCFB00BF00BF4021B34801F0EB
:10355000D8FB00BF00BF1021B04801F0D2FB00BF74
:1035600000BFA7E000BF00BF4FF40041AA4801F030
:10357000C8FB00BF00BF4FF40051A74801F0C1FBDA
:1035800000BF00BF2021A54801F0BBFB00BF00BF6A
:103590004FF40071A14801F0B4FB00BF00BF4FF42D
:1035A00000619E4801F0ADFB00BF00BF4FF4005129
:1035B0009A4801F0A6FB00BF00BF4FF48061974816
:1035C00001F09FFB00BF00BF4FF48051934801F012
:1035D00098FB00BF00BF4FF48041904801F08FFB83
:1035E00000BF00BF4FF480418B4801F08AFB00BF51
:1035F00000BF4021894801F084FB00BF00BF1021BB
:10360000864801F07EFB00BF00BF53E000BF00BF53
:103610004FF40041804801F072FB00BF00BF4FF43F
:1036200000517D4801F06DFB00BF00BF20217B48A9
:1036300001F067FB00BF00BF4FF40071774801F055
:1036400060FB00BF00BF4FF40061744801F059FBFC
:1036500000BF00BF4FF40051704801F052FB00BFA3
:1036600000BF4FF480616D4801F04BFB00BF00BF0D
:103670004FF48051694801F044FB00BF00BF4FF494
:103680008041664801F03BFB00BF00BF4FF4804122
:10369000614801F036FB00BF00BF40215F4801F0E8
:1036A00030FB00BF00BF10215C4801F02AFB00BFC7
:1036B00000BF00BF00BF5A4800780A2850D2DFE898
:1036C00000F005509BF9F6F5F4F3F2F100BF00BFEE
:1036D0000121544801F015FB00BF00BF02215148F1
:1036E00001F00FFB00BF00BF20214E4801F009FB95
:1036F00000BF00BF80214B4801F003FB00BF00BFAB
:103700000121464801F0FBFA00BF00BF10214648E6
:1037100001F0F7FA00BF00BF0821434801F0F1FAB9
:1037200000BF00BF02213D4801F0EBFA00BF00BF1F
:1037300020213D4801F0E3FA00BF00BF04213948D1
:1037400001F0DFFA00BF00BF0821364801F0D9FAC6
:1037500000BF00BF4021334801F0D3FA00BF00BFD3
:10376000BCE200BF00BF01212E4801F0C8FA00BF33
:1037700000BF02212B4801F0C2FA00BF00BF202188
:10378000284801F0BEFA00BF00BF8021254801F0A3
:10379000B8FA00BF00BF0121204801F0B0FA00BF15
:1037A00000BF1021204801F0ACFA00BF00BF082183
:1037B0001D4801F0A6FA00BF00BF0221174801F022
:1037C000A0FA00BF00BF2021174801F098FA00BFFF
:1037D00000BF0421134801F092FA00BF00BF082186
:1037E000104801F08CFA00BF00BF40210D4801F0E5
:1037F00088FA00BF00BF71E200BF00BF0121094885
:1038000001F07FFA00BF00BF0221064801F079FAFB
:1038100000BF00BF202109E0001001400018014056
:10382000A300002000140140000C0140FE4801F0FC
:1038300068FA00BF00BF8021FB4801F060FA00BFBA
:1038400000BF0121F94801F05CFA00BF00BF102160
:10385000F74801F056FA00BF00BF0821F44801F014
:1038600050FA00BF00BF0221F04801F04AFA00BF41
:1038700000BF2021EE4801F042FA00BF00BF042142
:10388000E94801F03CFA00BF00BF0821E64801F01A
:1038900038FA00BF00BF4021E34801F032FA00BF10
:1038A00000BF1BE2CFE17CE130E1E4E098E04CE0D6
:1038B00000E014E200BF00BF0121DB4801F01FFA65
:1038C00000BF00BF0221D84801F01BFA00BF00BFB3
:1038D0002021D54801F015FA00BF00BF8021D24851
:1038E00001F00FFA00BF00BF0121D04801F009FA32
:1038F00000BF00BF1021CE4801F003FA00BF00BF97
:103900000821CB4801F0FDF900BF00BF0221C748E4
:1039100001F0F7F900BF00BF2021C54801F0EFF921
:1039200000BF00BF0421C04801F0E9F900BF00BF9B
:103930000821BD4801F0E5F900BF00BF4021BA48A9
:1039400001F0DFF900BF00BFC8E100BF00BF0121E7
:10395000B54801F0D4F900BF00BF0221B24801F020
:10396000CEF900BF00BF2021AF4801F0CAF900BF67
:1039700000BF8021AC4801F0C4F900BF00BF0121A5
:10398000AA4801F0BEF900BF00BF1021A84801F00D
:10399000B8F900BF00BF0821A54801F0B2F900BF87
:1039A00000BF0221A14801F0ACF900BF00BF2021F7
:1039B0009F4801F0A4F900BF00BF04219A4801F01C
:1039C000A0F900BF00BF0821974801F098F900BF97
:1039D00000BF4021944801F094F900BF00BF7DE191
:1039E00000BF00BF0121904801F089F900BF00BF6E
:1039F00002218D4801F085F900BF00BF20218A48CF
:103A000001F07FF900BF00BF8021874801F079F9FC
:103A100000BF00BF0121854801F073F900BF00BF5E
:103A20001021834801F06DF900BF00BF08218048D4
:103A300001F065F900BF00BF02217C4801F061F987
:103A400000BF00BF20217A4801F059F900BF00BF34
:103A50000421754801F055F900BF00BF08217248E4
:103A600001F04FF900BF00BF40216F4801F049F954
:103A700000BF00BF32E100BF00BF01216A4801F072
:103A800040F900BF00BF0221674801F03AF900BFCA
:103A900000BF2021644801F034F900BF00BF80213D
:103AA000614801F02EF900BF00BF01215F4801F01D
:103AB00028F900BF00BF10215D4801F022F900BFC6
:103AC00000BF08215A4801F01AF900BF00BF0221C7
:103AD000564801F016F900BF00BF2021544801F0FC
:103AE0000EF900BF00BF04214F4801F00AF900BFE2
:103AF00000BF08214C4801F004F900BF00BF40217D
:103B0000494801F0FEF800BF00BFE7E000BF00BF7A
:103B10000121454801F0F3F800BF00BF02214248EF
:103B200001F0EDF800BF00BF20213F4801F0E9F8A7
:103B300000BF00BF80213C4801F0E3F800BF00BF98
:103B400001213A4801F0DBF800BF00BF10213848DE
:103B500001F0D7F800BF00BF0821354801F0D1F8C7
:103B600000BF00BF0221314801F0CBF800BF00BF09
:103B700020212F4801F0C3F800BF00BF04212A48CC
:103B800001F0BDF800BF00BF0821274801F0B9F8D7
:103B900000BF00BF4021244801F0B3F800BF00BFC0
:103BA0009CE000BF00BF01211F4801F0AAF800BF40
:103BB00000BF02211C4801F0A4F800BF00BF202173
:103BC000194801F09EF800BF00BF8021164801F09F
:103BD00098F800BF00BF0121144801F092F800BF1F
:103BE00000BF1021124801F08CF800BF00BF08216F
:103BF0000F4801F086F800BF00BF02210B4801F01A
:103C000080F800BF00BF2021094801F078F800BF0C
:103C100000BF0421044801F074F800BF00BF082170
:103C2000014801F06EF805E0001401400018014061
:103C3000000C014000BF00BF4021FE4801F061F8C8
:103C400000BF00BF4AE000BF00BF0121F94801F0FA
:103C500056F800BF00BF0221F64801F052F800BF3D
:103C600000BF2021F34801F04CF800BF00BF8021C5
:103C7000F04801F046F800BF00BF0121EE4801F016
:103C800040F800BF00BF1021EC4801F03AF800BF37
:103C900000BF0821E94801F034F800BF00BF02214D
:103CA000E54801F02EF800BF00BF2021E34801F0F5
:103CB00026F800BF00BF0421DE4801F022F800BF53
:103CC00000BF0821DB4801F01CF800BF00BF402105
:103CD000D84801F016F800BF00BF00BFFEE3D84887
:103CE00000780428FAD1D74800780A2859D2DFE8AA
:103CF00000F00559ADFDFCFBFAF9F8F700BF00BF75
:103D00004FF40041D04800F0FCFF00BF00BF4FF46B
:103D10000051CD4800F0F5FF00BF00BF2021C6488C
:103D200000F0EDFF00BF00BF4FF40071C24800F08B
:103D3000E8FF00BF00BF4FF40061BF4800F0DFFFA5
:103D400000BF00BF4FF40051BB4800F0DAFF00BFD6
:103D500000BF4FF48061B84800F0D3FF00BF00BF40
:103D60004FF48051B44800F0CCFF00BF00BF4FF4C7
:103D70008041B14800F0C5FF00BF00BF4FF4804153
:103D8000B14800F0BEFF00BF00BF4021AA4800F0CC
:103D9000B8FF00BF00BF1021A74800F0B0FF00BF70
:103DA00000BF08E300BF00BF4FF40041A64800F089
:103DB000A6FF00BF00BF4FF40051A34800F09FFFD3
:103DC00000BF00BF20219C4800F099FF00BF00BF4A
:103DD0004FF40071984800F094FF00BF00BF4FF40B
:103DE0000061954800F08BFF00BF00BF4FF4005109
:103DF000914800F086FF00BF00BF4FF480618E48FD
:103E000000F07FFF00BF00BF4FF480518A4800F0F0
:103E100078FF00BF00BF4FF48041874800F071FF7A
:103E200000BF00BF4FF48041874800F068FF00BF2B
:103E300000BF4021804800F062FF00BF00BF10219A
:103E40007D4800F05CFF00BF00BFB4E200BF00BFD0
:103E50004FF400417C4800F054FF00BF00BF4FF416
:103E60000051794800F04DFF00BF00BF202172488B
:103E700000F045FF00BF00BF4FF400716E4800F036
:103E80003EFF00BF00BF4FF400616B4800F039FFF8
:103E900000BF00BF4FF40051674800F032FF00BF81
:103EA00000BF4FF48061644800F02BFF00BF00BFEB
:103EB0004FF48051604800F024FF00BF00BF4FF472
:103EC00080415D4800F01DFF00BF00BF4FF48041FE
:103ED0005D4800F014FF00BF00BF4021564806E0D7
:103EE00015E2C0E16BE116E1C1E05FE00AE000F03D
:103EF00008FF00BF00BF10214F4800F000FF00BFC7
:103F000000BF58E200BF00BF4FF400414E4800F030
:103F1000F6FE00BF00BF4FF400514B4800F0F1FE29
:103F200000BF00BF2021444800F0E9FE00BF00BFF1
:103F30004FF40071404800F0E4FE00BF00BF4FF4B2
:103F400000613D4800F0DDFE00BF00BF4FF40051AE
:103F5000394800F0D6FE00BF00BF4FF480613648FC
:103F600000F0CFFE00BF00BF4FF48051324800F098
:103F7000C8FE00BF00BF4FF480412F4800F0C1FED3
:103F800000BF00BF4FF480412F4800F0B8FE00BFD3
:103F900000BF4021284800F0B4FE00BF00BF102140
:103FA000254800F0ACFE00BF00BF04E200BF00BF28
:103FB0004FF40041244800F0A2FE00BF00BF4FF4C0
:103FC0000051214800F09BFE00BF00BF20211A488D
:103FD00000F095FE00BF00BF4FF40071164800F0DE
:103FE00090FE00BF00BF4FF40061134800F089FE4F
:103FF00000BF00BF4FF400510F4800F082FE00BF29
:1040000000BF4FF480610C4800F07BFE00BF00BF92
:104010004FF48051084800F074FE00BF00BF4FF419
:104020008041054800F06DFE00BF00BF4FF48041A5
:1040300005480BE00014014000180140000C01404D
:10404000A00000209F0000200010014000F059FE59
:1040500000BF00BF4021FE4800F051FE00BF00BF7E
:104060001021FB4800F04BFE00BF00BFA3E100BFE2
:1040700000BF4FF40041F74800F041FE00BF00BF11
:104080004FF40051F34800F03CFE00BF00BF202178
:10409000EF4800F034FE00BF00BF4FF40071EC4861
:1040A00000F02FFE00BF00BF4FF40061E84800F0B1
:1040B00028FE00BF00BF4FF40051E54800F021FE8C
:1040C00000BF00BF4FF48061E14800F018FE00BF60
:1040D00000BF4FF48051DE4800F013FE00BF00BF68
:1040E0004FF48041DA4800F00CFE00BF00BF4FF4EF
:1040F0008041D84800F005FE00BF00BF4021D448F1
:1041000000F0FFFD00BF00BF1021D14800F0F7FD17
:1041100000BF00BF4FE100BF00BF4FF40041CD48DA
:1041200000F0EFFD00BF00BF4FF40051C94800F0A0
:10413000E8FD00BF00BF2021C54800F0E0FD00BF42
:1041400000BF4FF40071C24800F0DBFD00BF00BFAC
:104150004FF40061BE4800F0D4FD00BF00BF4FF433
:104160000051BB4800F0CDFD00BF00BF4FF480619F
:10417000B74800F0C4FD00BF00BF4FF48051B44801
:1041800000F0BFFD00BF00BF4FF48041B04800F019
:10419000B8FD00BF00BF4FF48041AE4800F0B1FD54
:1041A00000BF00BF4021AA4800F0ABFD00BF00BF28
:1041B0001021A74800F0A3FD00BF00BFFBE000BF37
:1041C00000BF4FF40041A34800F099FD00BF00BFBD
:1041D0004FF400519F4800F092FD00BF00BF202126
:1041E0009B4800F08CFD00BF00BF4FF40071984861
:1041F00000F087FD00BF00BF4FF40061944800F05D
:104200007EFD00BF00BF4FF40051914800F079FDE2
:1042100000BF00BF4FF480618D4800F072FD00BF09
:1042200000BF4FF480518A4800F06BFD00BF00BF13
:104230004FF48041864800F064FD00BF00BF4FF49A
:104240008041844800F05BFD00BF00BF40218048F2
:1042500000F057FD00BF00BF10217D4800F04FFD6A
:1042600000BF00BFA7E000BF00BF4FF40041794886
:1042700000F047FD00BF00BF4FF40051754800F04B
:1042800040FD00BF00BF2021714800F038FD00BF95
:1042900000BF4FF400716E4800F033FD00BF00BF57
:1042A0004FF400616A4800F02CFD00BF00BF4FF4DE
:1042B0000051674800F025FD00BF00BF4FF480614A
:1042C000634800F01EFD00BF00BF4FF480516048FE
:1042D00000F017FD00BF00BF4FF480415C4800F0C4
:1042E00010FD00BF00BF4FF480415A4800F009FDA7
:1042F00000BF00BF4021564800F003FD00BF00BFD3
:104300001021534800F0FBFC00BF00BF53E000BF8A
:1043100000BF4FF400414F4800F0F1FC00BF00BF68
:104320004FF400514B4800F0ECFC00BF00BF2021CF
:10433000474800F0E4FC00BF00BF4FF40071444860
:1043400000F0DFFC00BF00BF4FF40061404800F008
:10435000D8FC00BF00BF4FF400513D4800F0D1FC35
:1043600000BF00BF4FF48061394800F0CAFC00BFB5
:1043700000BF4FF48051364800F0C3FC00BF00BFBF
:104380004FF48041324800F0BCFC00BF00BF4FF446
:104390008041304800F0B5FC00BF00BF40212C48F0
:1043A00000F0AFFC00BF00BF1021294800F0A7FCBF
:1043B00000BF00BF00BF00BF274800780A285BD2BB
:1043C000DFE800F0055BA8FAF8F7F6F5F4F300BFB4
:1043D00000BF0121214800F094FC00BF00BF022172
:1043E0001E4800F08EFC00BF00BF20211B4800F0DB
:1043F00086FC00BF00BF8021184800F082FC00BF8F
:1044000000BF0121124800F07AFC00BF00BF10215C
:10441000134800F076FC00BF00BF0821104800F0F0
:1044200070FC00BF00BF0221094800F06AFC00BF19
:1044300000BF20210A4800F064FC00BF00BF042137
:10444000064800F05EFC00BF00BF0821034809E0F9
:104450000018014000100140A40000200014014099
:10446000000C014000F04DFC00BF00BF4021FE48A1
:1044700000F045FC00BF00BFB2E200BF00BF012159
:10448000F94800F03CFC00BF00BF0221F64800F0F4
:1044900036FC00BF00BF2021F34800F030FC00BF15
:1044A00000BF8021F04800F02CFC00BF00BF0121BC
:1044B000EE4800F024FC00BF00BF1021EC4800F0E3
:1044C00020FC00BF00BF0821E94800F01AFC00BF33
:1044D00000BF0221E54800F014FC00E081E200BFCB
:1044E00000BF2021E24800F00CFC00BF00BF042107
:1044F000DD4800F004FC00BF00BF0821DA4800F0EE
:10450000FEFB00BF00BF4021D74800F0F8FB00BF12
:1045100000BF65E200BF00BF0121D34800F0F1FBFE
:1045200000BF00BF0221D04800F0EBFB00BF00BF7E
:104530002021CD4800F0E3FB00BF00BF8021CA4826
:1045400000F0DDFB00BF00BF0121C84800F0D9FB2F
:1045500000BF00BF1021C64800F0D3FB00BF00BF62
:104560000821C34800F0CDFB00BF00BF0221BF48B7
:1045700000F0C7FB00BF00BF2021BD4800F0C1FB19
:1045800000BF00BF0421B84800F0B9FB00BF00BF66
:104590000821B54800F0B5FB00BF00BF4021B2487C
:1045A00000F0ADFB00BF00BF1AE2CEE182E12FE1D7
:1045B000E3E097E04BE0FFE700BF00BF0121AA481E
:1045C00000F09DFB00BF00BF0221A74800F099FB4F
:1045D00000BF00BF2021A44800F091FB00BF00BF36
:1045E0008021A14800F08DFB00BF00BF01219F4842
:1045F00000F087FB00BF00BF10219D4800F081FB49
:1046000000BF00BF08219A4800F07BFB00BF00BF3D
:104610000221964800F075FB00BF00BF202194489E
:1046200000F06FFB00BF00BF04218F4800F067FB64
:1046300000BF00BF08218C4800F063FB00BF00BF33
:104640004021894800F05BFB00BF00BFC8E100BF0C
:1046500000BF0121844800F052FB00BF00BF0221CF
:10466000814800F04CFB00BF00BF20217E4800F0D5
:1046700046FB00BF00BF80217B4800F042FB00BF2B
:1046800000BF0121794800F03CFB00BF00BF1021B2
:10469000774800F036FB00BF00BF0821744800F0E7
:1046A00030FB00BF00BF0221704800F02AFB00BFB2
:1046B00000BF20216E4800F024FB00BF00BF042192
:1046C000694800F01EFB00BF00BF0821664800F0EB
:1046D00016FB00BF00BF4021634800F010FB00BF85
:1046E00000BF7DE100BF00BF01215F4800F007FB74
:1046F00000BF00BF02215C4800F003FB00BF00BF09
:104700002021594800F0FBFA00BF00BF8021564825
:1047100000F0F7FA00BF00BF0121544800F0F1FAA1
:1047200000BF00BF1021524800F0EBFA00BF00BFED
:1047300008214F4800F0E3FA00BF00BF02214B48B8
:1047400000F0DFFA00BF00BF2021494800F0D9FA8D
:1047500000BF00BF0421444800F0D3FA00BF00BFEF
:104760000821414800F0CDFA00BF00BF40213E487B
:1047700000F0C5FA00BF00BF32E100BF00BF012159
:10478000394800F0BEFA00BF00BF0221364800F0F1
:10479000B8FA00BF00BF2021334800F0B0FA00BFD4
:1047A00000BF8021304800F0ACFA00BF00BF0121FB
:1047B0002E4800F0A6FA00BF00BF10212C4800F0E0
:1047C000A0FA00BF00BF0821294800F098FA00BFF6
:1047D00000BF0221254800F094FA00BF00BF20214D
:1047E000234800F08EFA00BF00BF04211E4800F0ED
:1047F00088FA00BF00BF08211B4800F082FA00BF02
:1048000000BF4021184800F07AFA00BF00BFE7E07F
:1048100000BF00BF0121144800F071FA00BF00BFC3
:104820000221114800F06BFA00BF00BF20210E48A2
:1048300000F065FA00BF00BF80210B4800F061FA6C
:1048400000BF00BF0121094800F059FA00BF00BFB6
:104850001021074800F055FA00BF00BF08210448A6
:1048600000F04FFA00BF05E00014014000180140BD
:10487000000C014000BF0221604800F042FA00BF76
:1048800000BF20215E4800F03CFA00BF00BF0421B9
:104890005C4800F034FA00BF00BF0821594800F01E
:1048A00030FA00BF00BF4021564800F028FA00BF90
:1048B00000BF95E000BF00BF0121524800F021FA7F
:1048C00000BF00BF02214F4800F01BFA00BF00BF2D
:1048D00020214C4800F013FA00BF00BF8021494856
:1048E00000F00FFA00BF00BF0121444800F009FAB0
:1048F00000BF00BF1021424800F003FA00BF00BF14
:1049000008213F4800F0FDF900BF00BF02213B48ED
:1049100000F0F7F900BF00BF2021394800F0F1F99D
:1049200000BF00BF0421374800F0EBF900BF00BF13
:104930000821344800F0E5F900BF00BF40213148AC
:1049400000F0DDF900BF00BF4AE000BF00BF012159
:104950002C4800F0D4F900BF00BF0221294800F024
:10496000D0F900BF00BF2021264800F0C8F900BFE1
:1049700000BF8021234800F0C4F900BF00BF01211F
:104980001E4800F0BEF900BF00BF10211C4800F017
:10499000B8F900BF00BF0821194800F0B2F900BF04
:1049A00000BF0221154800F0ACF900BF00BF202174
:1049B000134800F0A6F900BF00BF0421114800F021
:1049C000A0F900BF00BF08210E4800F09AF900BF0F
:1049D00000BF40210B4800F092F900BF00BF00BFAC
:1049E00000BF09480078401C074908700846007855
:1049F000052801D101200870BDE8F08700180140AA
:104A0000000C014000140140A00000203149014386
:104A1000314A1160704770B5002100230F22C4781D
:104A20000CB32D4C246804F4E064C4F5E064210A5E
:104A3000C1F10403CA40447804FA03F184781440B5
:104A400021430901254C0678A155047804F01F057F
:104A50000124AC4005786D114FF0E02606EB85058A
:104A6000C5F8004109E0047804F01F050124AC40BA
:104A70001B4D0678761145F8264070BD194A0A404C
:104A80000243154B1B1F1A60704739B1124A121DA1
:104A900012680243104B1B1D1A6006E00E4A121DDD
:104AA000126882430C4B1B1D1A607047042808D102
:104AB0004FF0E021096941F004014FF0E02211615B
:104AC00007E04FF0E021096921F004014FF0E022F6
:104AD000116170470000FA050CED00E000E400E011
:104AE00080E100E080FFFF1F10B50446CA48844201
:104AF00008D10121042000F027FB0021042000F050
:104B000023FB46E0C548844208D10121082000F07B
:104B10001BFB0021082000F017FB3AE0C04884424C
:104B200008D10121102000F00FFB0021102000F01F
:104B30000BFB2EE0BB48844208D10121202000F06D
:104B400003FB0021202000F0FFFA22E0B648844257
:104B500008D10121402000F0F7FA0021402000F0A8
:104B6000F3FA16E0B148844208D10121802000F018
:104B7000EBFA0021802000F0E7FA0AE0AC4884421A
:104B800007D10121801500F0DFFA0021A01500F007
:104B9000DBFA10BD10B50121084600F0D5FA00215E
:104BA000012000F0D1FA10BD2DE9F04102460025A8
:104BB0000026002000230024002791F803C00CF0F9
:104BC0000F0591F803C01CF0100F03D091F802C03C
:104BD0004CEA050591F800C0BCF1000F31D0146813
:104BE00000202BE04FF0010C0CFA00F3B1F800C0EC
:104BF0000CEA03069E4220D183004FF00F0C0CFA02
:104C000003F7BC4305FA03FC4CEA040491F803C023
:104C1000BCF1280F06D14FF0010C0CFA00FCC2F8D1
:104C200014C00AE091F803C0BCF1480F05D14FF061
:104C3000010C0CFA00FCC2F810C0401C0828D1D3AB
:104C40001460B1F800C0BCF1FF0F34DD54680020DF
:104C50002EE000F1080C4FF0010808FA0CF3B1F84F
:104C600000C00CEA03069E4221D183004FF00F0CD6
:104C70000CFA03F7BC4305FA03FC4CEA040491F870
:104C800003C0BCF1280F05D100F1080C08FA0CF89C
:104C9000C2F8148091F803C0BCF1480F07D100F1AD
:104CA000080C4FF0010808FA0CF8C2F81080401CFC
:104CB0000828CED35460BDE8F0814FF6FF71018023
:104CC000022181700421C170704702460020936860
:104CD0000B4201D0012000E00020704701468868A7
:104CE00080B2704702460020D3680B4201D00120F9
:104CF00000E0002070470146C86880B2704701613B
:104D00007047416170470AB1016100E0416170473D
:104D1000C16070474FF480320A43826181618261D1
:104D200082698269704702460020424B18684FF63C
:104D30008073184040EA021008433E4B18607047E9
:104D40003D49C8617047F0B50A46002300240021A0
:104D5000002500F00046B6F1004F02D1354EF16952
:104D600001E0344E7168C0F3034583B200F440168D
:104D7000B6F5401F08D121F070612E4E766826F0FE
:104D800070662C4F7E6012E000F48016B6F5801F2E
:104D900006D1032606FA05F4A14341F0706106E04E
:104DA000460D360103FA06F6B14341F0706122B1B7
:104DB000460D360103FA06F6314300F00046B6F11F
:104DC000004F02D11B4EF16101E01A4E7160F0BD3F
:104DD00030B500228B071C0F0F2303FA04F2154B8A
:104DE00008338C1053F824309343124C08348D1040
:104DF00044F8253023468C1053F824308C07240FB8
:104E000000FA04F423430B4C08348D1044F8253089
:104E100030BD0A490860704700080140000C01409D
:104E2000001001400014014000180140001C014026
:104E3000002001400000014000002042DC00204230
:104E4000DD48006840F00100DB4908600846406822
:104E5000DA490840D849486008460068D8490840FF
:104E6000D54908600846006820F48020086008469C
:104E7000406820F4FE0048604FF41F0088607047CF
:104E8000CD49096821F48031CB4A11601146096887
:104E900021F480211160B0F5803F03D0B0F5802F60
:104EA0000ED106E0C449096841F48031C24A11605C
:104EB00007E0C149096841F4A021BF4A116000E040
:104EC00000BF00BF704710B501460022002300203C
:104ED0004A11012A02D1B84C236806E0022A02D105
:104EE000B54C236A01E0B44C636A01F01F0201244F
:104EF00094401C4201D0012000E0002010BD38B5D4
:104F0000002000900024002500BF3120FFF7DBFFC8
:104F100005460098401C00900098B0F5A06F01D0A5
:104F2000002DF2D03120FFF7CEFF08B1012400E0C0
:104F30000024204638BD014600209F4A106820F01A
:104F4000F80040EAC100106070479E490860704751
:104F500002460020984B586820F47C1042EA010376
:104F60001843954B5860704796490866704701464C
:104F70000020914A506820F00300084350607047B9
:104F80008D48406800F00C007047014600208A4AB6
:104F9000506820F0F0000843506070470146002040
:104FA000854A506820F4E06008435060704701462D
:104FB0000020814A506820F4605040EAC1005060EF
:104FC000704729B17C4A527A02437B4B5A7204E003
:104FD000794A527A8243784B5A7270477A4908600C
:104FE000704701460020744A506820F4404008434E
:104FF000506070470021754A11706F4A82F8201086
:10500000012802D0042808D103E001216F4A117061
:1050100004E005216D4A117000E000BF00BF704739
:105020006B49086070476449096A0143624A11622A
:105030007047674944390860704730B50021002245
:10504000002400235C4D6D6805F00C0121B104299A
:1050500005D0082923D105E05E4D056022E05D4DB5
:1050600005601FE0544D6D6805F47012524D6D6877
:1050700005F48034022505EB92421CB9564D554388
:1050800005600BE04C4D6D6815F4003F03D0524DA8
:105090005543056002E04F4D5543056002E04D4D1C
:1050A000056000BF00BF444D6D6805F0F0010909BF
:1050B0004A4D6B5C0568DD4045603F4D6D6805F409
:1050C000E061090A454D6B5C4568DD4085603A4DFD
:1050D0006D6805F46051C90A404D6B5C4568DD4060
:1050E000C560354D6D6805F44041890B3C4D6B5CE6
:1050F000C568B5FBF3F5056130BD29B12E4A52698B
:1051000002432D4B5A6104E02B4A526982432A4BD9
:105110005A61704729B1284A92690243264B9A6125
:1051200004E0254A92698243234B9A61704729B172
:10513000214AD2690243204BDA6104E01E4AD26957
:1051400082431D4BDA61704729B11B4AD268024382
:10515000194BDA6004E0184AD2688243164BDA60D1
:10516000704729B1144A12690243134B1A6104E0D3
:10517000114A12698243104B1A6170471449403931
:10518000086070470F49C86470470B49C871704781
:105190000948406A40F080700749486270470146FC
:1051A0000020054A92680A4201D0012000E0002058
:1051B0007047014988727047001002400000FFF8F4
:1051C000FFFFF6FE00004242D8004242201002409B
:1051D0008004424200127A0000093D00A500002030
:1051E000B500002010B50446FE48844208D10121D4
:1051F000C014FFF7A9FF0021E014FFF7A5FFC4E0EA
:10520000B4F1804F08D101210846FFF7AAFF002121
:105210000120FFF7A6FFB8E0F348844208D101213E
:105220000220FFF79EFF00210220FFF79AFFACE06B
:10523000EE48844208D101210420FFF792FF0021AB
:105240000420FFF78EFFA0E0E948844208D1012145
:105250000820FFF786FF00210820FFF782FF94E077
:10526000E448844208D101211020FFF77AFF002191
:105270001020FFF776FF88E0DF48844208D1012143
:105280002020FFF76EFF00212020FFF76AFF7CE05F
:10529000DA48844208D101214014FFF755FF00216C
:1052A0006014FFF751FF70E0D548844209D1012115
:1052B000C804FFF749FF00214FF40020FFF744FF27
:1052C00063E0D048844209D101210805FFF73CFF83
:1052D00000214FF48010FFF737FF56E0CA488442A0
:1052E00009D101214805FFF72FFF00214FF40010DD
:1052F000FFF72AFF49E0C548844208D10121402038
:10530000FFF72FFF00214020FFF72BFF3DE0C048B3
:10531000844208D101218020FFF723FF0021802053
:10532000FFF71FFF31E0BB48844208D101218015FF
:10533000FFF717FF0021A015FFF713FF25E0B64880
:10534000844209D101210804FFF7FEFE00214FF439
:105350008030FFF7F9FE18E0B048844209D10121FE
:105360004804FFF7F1FE00214FF40030FFF7ECFE98
:105370000BE0AB48844208D101218804FFF7E4FE2A
:1053800000214FF48020FFF7DFFE10BD00220288CD
:10539000944B98420ED0994B98420BD0B0F1804F6D
:1053A00008D0914B984205D0904B984202D0904B38
:1053B000984204D14FF68F731A404B881A438D4B95
:1053C000984207D08C4B984204D04FF6FF431A40C6
:1053D000CB881A4302808B8883850B880385814B99
:1053E00098420BD0854B984208D08B4B984205D001
:1053F0008A4B984202D08A4B984201D10B7A03869D
:1054000001238382704770B5002400220023058C9D
:105410004FF6FE7635400584028C8388048B4FF668
:105420008F752C40B51E2C400D882C43751E2A40CC
:105430000D892A434D882A436A4DA8420BD06F4DEF
:10544000A84208D0744DA84205D0744DA84202D09D
:10545000734DA84213D14FF6F7752A404D892A4360
:105460004FF6FB752A408D882A434FF6FF652B4087
:105470004FF6FF552B408D892B43CD892B438380DD
:105480000483CD888586028470BD70B50024002217
:105490000023058C4FF6EF7635400584028C838817
:1054A000048B48F6FF752C404FF6FF452C400D88C5
:1054B0004FF6FF7606EA05252C434FF6DF752A40A6
:1054C0000D8906EA05152A434D8806EA05152A4383
:1054D000444DA84202D0494DA8421DD14FF67F75D8
:1054E0002A404D894FF6FF7606EA05152A434FF606
:1054F000BF752A408D8806EA05152A434FF6FF3509
:105500002B404FF2FF752B408D8906EA85052B4312
:10551000CD8906EA85052B4383800483CD880587E2
:10552000028470BD70B5002400220023058C4FF664
:10553000FF6635400584028C8388848B4FF68F7517
:105540002C404FF6FC752C400D882C434FF6FF5530
:105550002A400D894FF6FF7606EA05252A434D8835
:1055600006EA05252A431F4DA84202D0234DA84232
:105570001DD14FF2FF752A404D894FF6FF7606EA9E
:1055800005252A434FF6FF352A408D8806EA052572
:105590002A434EF6FF752B404DF6FF752B408D8943
:1055A00006EA05152B43CD8906EA05152B438380B2
:1055B0008483CD888587028470BD70B50022002366
:1055C0000024058C4EF6FF7635400584038C8488D4
:1055D000828B48F6FF752A404FF6FF452A400D881A
:1055E00020E00000002C01400004004000080040C2
:1055F000000C004000100040001400400034014046
:10560000004C01400050014000540140001800408F
:10561000001C0040002000400040014000440140C8
:10562000004801404FF6FF7606EA05252A434DF66D
:10563000FF752B400D8906EA05352B434D8806EA98
:1056400005352B43FA4DA84202D0FA4DA84208D1A5
:105650004BF6FF752C408D894FF6FF7606EA8515CF
:105660002C4384808283CD88A0F84050038470BD91
:10567000828B4FF2FF331A408283828B4FF6FF7387
:1056800003EA01231A4382837047F0B50C4615469E
:10569000002200210026078C4EF6FF7C07EA0C074B
:1056A0000784828B018C4FF6FF7707EA043640F6B9
:1056B000FF473A404FF6FF7707EA05273A434FF690
:1056C000FF7707EA03373A43D94FB8420ED0D94F94
:1056D000B8420BD0B0F1804F08D0D74FB84205D0B8
:1056E000D64FB84202D0D64FB84206D14DF6FF771A
:1056F000394046F48057394305E047F6FF573940B3
:1057000044F48057394382830184F0BD828B4FF685
:10571000F3731A408283828B0A4382837047F0B509
:105720000C461546002200210026078C4FF6FF6C20
:1057300007EA0C070784828B018C4FF6FF7707EA94
:1057400004264FF60C773A404FF6FF7707EA031727
:105750002F433A43B64FB8420ED0B64FB8420BD0A3
:10576000B0F1804F08D0B44FB84205D0B34FB84223
:1057700002D0B34FB84206D14FF6FF57394046F436
:105780008077394305E04FF2FF57394044F4807782
:10579000394382830184F0BD028B4FF2FF331A40FC
:1057A0000283028B4FF6FF7303EA01231A4302833D
:1057B0007047F0B50C461546002200210026078CE4
:1057C0004FF6EF7C07EA0C070784028B018C4FF63B
:1057D000FF7707EA041640F6FF473A404FF6FF7797
:1057E00007EA03373A434FF6FF7707EA05273A43BC
:1057F0008F4FB8420ED08F4FB8420BD0B0F1804FD0
:1058000008D08D4FB84205D08C4FB84202D08C4F93
:10581000B84206D14FF6DF77394046F010073943DA
:1058200005E04FF65F77394044F0100739430283B3
:105830000184F0BD028B4FF6F3731A400283028B92
:105840000A4302837047F0B50C461546002200213A
:10585000068C4FF6FE773E400684028B018C4FF695
:105860000C7632407E1C06EA03162E433243704EFD
:10587000B0420ED06F4EB0420BD0B0F1804F08D086
:105880006D4EB04205D06D4EB04202D06C4EB0426B
:1058900006D14FF6FD76314044F00106314305E074
:1058A0004FF6F576314044F001063143028301841E
:1058B000F0BD70B505460C465D4885420ED05D488A
:1058C00085420BD0B5F1804F08D05B48854205D0AA
:1058D0005A48854202D05A48854200D100E000BFB4
:1058E000208850B92389A28861882846FFF7ABFF3A
:1058F000E1882846FFF79EFF25E0208804280AD18A
:105900002389A28861882846FFF753FFE18828464B
:10591000FFF742FF17E0208808280AD12389A288D0
:1059200061882846FFF7FBFEE1882846FFF7EEFE78
:1059300009E02389A28861882846FFF7A6FEE1884E
:105940002846FFF795FE70BD2DE9F04105460C464F
:1059500000260127608808B9022600E00026A088FA
:10596000012801D1022700E001272088A0B923895E
:10597000A28861882846FFF766FFE1882846FFF77E
:1059800059FF23893A4631462846FFF712FFE1883E
:105990002846FFF701FF13E02389A2886188284683
:1059A000FFF707FFE1882846FFF7F6FE23893A460E
:1059B00031462846FFF747FFE1882846FFF73AFFC0
:1059C000BDE8F0810A884B881A438B881A43CB883C
:1059D0001A430B891A434B891A438B891A43A0F83F
:1059E000442070474FF6FF71818000210180C18003
:1059F0004180017270470021018041808180C18017
:105A0000018141818181C1817047002101804180F4
:105A1000012181800021C180018170470021018026
:105A200041808180C1800181418181817047000076
:105A3000002C0140003401400004004000080040F8
:105A4000000C004021B1028842F00102028004E013
:105A500002884FF6FE731A400280704731B1B0F8E9
:105A6000442042F40042A0F8442005E0B0F844206D
:105A7000C2F30E02A0F8442070471AB183890B4389
:105A8000838102E083898B438381704781827047E1
:105A900041EA0203A0F8483070471AB183890B43EA
:105AA000838102E083898B438381704701894FF6AC
:105AB000F8721140018170470A46002101894FF6B2
:105AC0008F73194011430181704730B504460D466C
:105AD00029462046FFF7F0FF208940F0070020818B
