:020000040800F2
:1000000010040020450100087D0500087505000862
:1000100079050008C3030008293C0008000000001F
:10002000000000000000000000000000A105000822
:10003000C7030008000000007F05000889060008CB
:100040005F0100085F0100085F0100085F01000810
:100050005F0100085F0100085F0100085F01000800
:100060005F0100085F0100085F0100085F010008F0
:100070005F0100085F0100085F0100085F010008E0
:100080005F0100085F0100085F0100085F010008D0
:100090005F0100085F0100085F0100085F010008C0
:1000A0005F0100085F0100085F0100085F010008B0
:1000B0005F0100085F0100085F0100085F010008A0
:1000C0005F0100085F0100085F0100085F01000890
:1000D0005F0100085F0100085F0100085F01000880
:1000E0005F0100085F0100085F0100085F01000870
:1000F0005F0100085F0100085F0100085F01000860
:100100005F0100085F0100085F0100085F0100084F
:100110005F0100085F0100085F0100085F0100083F
:100120005F0100085F0100085F0100085F0100082F
:10013000DFF80CD000F024F9004800474B3C0008E1
:10014000100400200648804706480047FEE7FEE707
:10015000FEE7FEE7FEE7FEE7FEE7FEE7FEE7FEE777
:10016000C93B0008310100082DE9FE4F81EA030474
:1001700004F0004421F0004100944FF0000B23F004
:10018000004350EA010402D052EA030404D10020E3
:10019000014603B0BDE8F08FC3F30A54C1F30A551A
:1001A0002C44A4F2F3340194A0FB0254C1F31301D4
:1001B00041F48011C3F3130343F4801301FB0244A1
:1001C00000FB034E840A970A44EA815447EA8357A6
:1001D000A4FB076802958D0A05FB07854FEA932C5F
:1001E00004FB0C542705029D4FEA065847EA1637D0
:1001F000B5EB08056EEB070C870E920E47EA8117E8
:1002000042EA8312A7FB0201B6EB0B0164EB000488
:100210002B0D43EA0C335E1844EB1C50DA46514672
:10022000E7FB0201C5F313044FEA0B3343EA14530F
:100230004FEA0432019C43EA0603A4F10C04029441
:10024000009CCDE900B400F048F8A2E70EB5C10F5C
:1002500080EAE0700844CA07002140F233438DE889
:100260000E000A460B4600F038F803B000BDC1F39B
:100270000A5210B5C1F3130140F2FF3341F480116B
:100280009A4201DA002010BD40F233439A42A2F2B2
:10029000334203DC524200F003F810BD904010BD21
:1002A000202A04DB203A21FA02F00021704721FACB
:1002B00002F3D040C2F12002914008431946704732
:1002C00010B5002B08DA401C41F1000192185B4187
:1002D0001A4301D120F0010010BD2DE9F04D9246E6
:1002E0009B4611B1B1FA81F202E0B0FA80F22032FD
:1002F000904600F057F804460F4640EA0A0041EAEB
:100300000B0153465A46084303D120463946BDE8FF
:10031000F08D114653EA010015D0C8F14002504655
:10032000FFF7BEFF05460E4650465946424600F0CE
:1003300039F8084301D0012000E00020054346EAD7
:10034000E0762C4337430A984FEA4453A0EB080069
:100350004FEAD4240A304FF0000244EA47544FEAEF
:10036000D72502D500200146D1E7010510196941C2
:10037000DDE9084500196941BDE8F04DA0E700003E
:10038000064C074D06E0E06840F0010394E80700E2
:1003900098471034AC42F6D3FFF7CEFEAC3D0008D0
:1003A000CC3D0008202A04DB203A00FA02F10020AC
:1003B00070479140C2F1200320FA03F319439040A3
:1003C000704700BFFEE770472DE9F0410246002567
:1003D0000026002000230024002791F803C00CF021
:1003E0000F0591F803C01CF0100F03D091F802C064
:1003F0004CEA050591F800C0BCF1000F31D014683B
:1004000000202BE04FF0010C0CFA00F3B1F800C013
:100410000CEA03069E4220D183004FF00F0C0CFA29
:1004200003F7BC4305FA03FC4CEA040491F803C04B
:10043000BCF1280F06D14FF0010C0CFA00FCC2F8F9
:1004400014C00AE091F803C0BCF1480F05D14FF089
:10045000010C0CFA00FCC2F810C0401C0828D1D3D3
:100460001460B1F800C0BCF1FF0F34DD5468002007
:100470002EE000F1080C4FF0010808FA0CF3B1F877
:1004800000C00CEA03069E4221D183004FF00F0CFE
:100490000CFA03F7BC4305FA03FC4CEA040491F898
:1004A00003C0BCF1280F05D100F1080C08FA0CF8C4
:1004B000C2F8148091F803C0BCF1480F07D100F1D5
:1004C000080C4FF0010808FA0CF8C2F81080401C24
:1004D0000828CED35460BDE8F0810000F0B50A468C
:1004E000002300240021002500F00046B6F1004F53
:1004F00002D11D4EF16901E01B4E7168C0F3034546
:1005000083B200F44016B6F5401F08D121F07061A7
:10051000154E766826F07066134F7E6012E000F488
:100520008016B6F5801F06D1032606FA05F4A1430E
:1005300041F0706106E0460D360103FA06F6B1435C
:1005400041F0706122B1460D360103FA06F63143DF
:1005500000F00046B6F1004F02D1034EF16101E018
:10056000014E7160F0BD0000000001404161704724
:100570000161704700BFFEE700BFFEE770477047AC
:1005800029B1064A92690243044B9A6104E0034A86
:1005900092698243014B9A6170470000001002404B
:1005A000704710B500F002F810BD00000CB5002037
:1005B000019000903248006840F480303049086073
:1005C00000BF2F48006800F4003000900198401CE4
:1005D0000190009818B90198B0F5A06FF1D12848A2
:1005E000006810F4003F02D00120009001E00020DC
:1005F00000900098012842D12248006840F0100085
:10060000204908600846006820F00300086008469A
:10061000006840F0020008601948406818494860C6
:100620000846406848600846406840F4806048607A
:100630000846406820F47C1048600846406840F452
:10064000E81048600846006840F08070086000BF0D
:100650000B48006810F0007FFAD00948406820F08D
:100660000300074948600846406840F002004860BF
:1006700000BF0348406800F00C000828F9D10CBD09
:1006800000100240002002402DE9F041FE480088A1
:10069000401CFD49088008460088B0F57A7F06D1E5
:1006A00000200880F9480078401CF8490870F74895
:1006B00000780A2807D10020F4490870F44800782F
:1006C000401CF3490870F2480078062807D1002042
:1006D000EF490870EF480078401CEE490870ED487B
:1006E00000780A2807D10020EA490870EA48007813
:1006F000401CE9490870E84800780A2802D1002027
:10070000E549087009EB0A00FFF7A0FD0746E34A38
:10071000E34BFFF729FD0546FFF7A9FD84B20A2048
:1007200094FBF0F100FB1140DE490870642094FB5B
:10073000F0F100FB11400A2190FBF1F0DA4908705A
:100740004FF47A7094FBF0F100FB1140642190FBB0
:10075000F1F0D64908704FF47A7094FBF0F0D44968
:100760000870D448007801287ED1C84800780A284B
:1007700059D2DFE800F00559AFFDFCFBFAF9F8F7B4
:1007800000BF00BF4FF40041CB48FFF7EFFE00BFB2
:1007900000BF4FF40051C848FFF7E8FE00BF00BF9C
:1007A0002021C648FFF7E4FE00BF00BF4FF40071F0
:1007B000C248FFF7DBFE00BF00BF4FF40061BF4837
:1007C000FFF7D6FE00BF00BF4FF40051BB48FFF754
:1007D000CFFE00BF00BF4FF48061B848FFF7C6FEF0
:1007E00000BF00BF4FF48051B448FFF7BFFE00BF09
:1007F00000BF4FF48041B148FFF7B8FE00BF00BF13
:100800004FF48041AC48FFF7B1FE00BF00BF40216C
:10081000AA48FFF7ABFE00BF00BF1021A748FFF7B3
:10082000A5FE00BF00BF1AE300BF00BF4FF40041A8
:10083000A148FFF79DFE00BF00BF4FF400519E4846
:10084000FFF796FE00BF00BF20219C48FFF790FEF7
:1008500000BF00BF4FF400719848FFF787FE00BF4C
:1008600000BF4FF4006100E0F8E39448FFF780FE1A
:1008700000BF00BF4FF400519048FFF779FE00BF62
:1008800000BF4FF480618D48FFF770FE00BF00BFCE
:100890004FF480518948FFF769FE00BF00BF4FF455
:1008A00080418648FFF762FE00BF00BF4FF48041E1
:1008B0008148FFF75DFE00BF00BF40217F48FFF782
:1008C00057FE00BF00BF10217C48FFF74FFE00BF5E
:1008D00000BFC4E200BF00BF4FF400417648FFF7FD
:1008E00045FE00BF00BF4FF400517348FFF73EFEC6
:1008F00000BF00BF20217148FFF73AFE00BF00BFD4
:100900004FF400716D48FFF733FE00BF00BF4FF496
:1009100000616A48FFF72AFE00BF00BF4FF4005194
:100920006648FFF725FE00BF00BF4FF480616348B3
:10093000FFF71CFE00BF00BF4FF480515F48FFF778
:1009400015FE00BF00BF4FF480415C48FFF70EFE6C
:1009500000BF00BF4FF480415748FFF709FE00BFBA
:1009600000BF06E027E2D2E17DE128E1D3E061E0CB
:100970000CE040215148FFF7F9FD00BF00BF1021F6
:100980004E48FFF7F3FD00BF00BF68E200BF00BFA5
:100990004FF400414848FFF7EBFD00BF00BF4FF4A4
:1009A00000514548FFF7E2FD00BF00BF202143484A
:1009B000FFF7DEFD00BF00BF4FF400713F48FFF7B7
:1009C000D5FD00BF00BF4FF400613C48FFF7CEFDEE
:1009D00000BF00BF4FF400513848FFF7C9FD00BF0A
:1009E00000BF4FF480613548FFF7C0FD00BF00BF76
:1009F0004FF480513148FFF7B9FD00BF00BF4FF4FD
:100A000080412E48FFF7B2FD00BF00BF4FF4804188
:100A10002948FFF7ADFD00BF00BF40212748FFF781
:100A2000A5FD00BF00BF10212448FFF79FFD00BFB8
:100A300000BF14E200BF00BF4FF400411E48FFF7A3
:100A400097FD00BF00BF4FF400511B48FFF790FD1A
:100A500000BF00BF20211948FFF78AFD00BF00BF7B
:100A60004FF400711548FFF781FD00BF00BF4FF440
:100A700000611248FFF77AFD00BF00BF4FF400513C
:100A80000E48FFF775FD1BE000000020020000206B
:100A9000030000200400002005000020B81E85EBA4
:100AA00051B8BE3F070000200800002009000020C8
:100AB0000A0000200600002000100140001801403C
:100AC00000BF00BF4FF48061FE48FFF74FFD00BF3D
:100AD00000BF4FF48051FB48FFF748FD00BF00BF47
:100AE0004FF48041F748FFF741FD00BF00BF4FF4CE
:100AF0008041F548FFF73AFD00BF00BF4021F148B3
:100B0000FFF736FD00BF00BF1021EE48FFF72EFDB6
:100B100000BF00BFA3E100BF00BF4FF40041EA489F
:100B2000FFF726FD00BF00BF4FF40051E648FFF776
:100B30001DFD00BF00BF2021E248FFF719FD00BFE7
:100B400000BF4FF40071DF48FFF710FD00BF00BF8A
:100B50004FF40061DB48FFF709FD00BF00BF4FF411
:100B60000051D848FFF704FD00BF00BF4FF480617B
:100B7000D448FFF7FDFC00BF00BF4FF48051D148BF
:100B8000FFF7F4FC00BF00BF4FF48041CD48FFF7F2
:100B9000EDFC00BF00BF4FF48041CB48FFF7E6FCFF
:100BA00000BF00BF4021C748FFF7E0FC00BF00BF07
:100BB0001021C448FFF7DAFC00BF00BF4FE100BFBF
:100BC00000BF4FF40041C048FFF7D0FC00BF00BF9A
:100BD0004FF40051BC48FFF7C9FC00BF00BF202103
:100BE000B848FFF7C5FC00BF00BF4FF40071B5481F
:100BF000FFF7BCFC00BF00BF4FF40061B148FFF736
:100C0000B5FC00BF00BF4FF40051AE48FFF7B0FC89
:100C100000BF00BF4FF48061AA48FFF7A9FC00BFE6
:100C200000BF4FF48051A748FFF7A0FC00BF00BFF2
:100C30004FF48041A348FFF799FC00BF00BF4FF479
:100C40008041A148FFF792FC00BF00BF40219D48B2
:100C5000FFF78CFC00BF00BF10219A48FFF786FC0D
:100C600000BF00BFFBE000BF00BF4FF4004196484B
:100C7000FFF77EFC00BF00BF4FF400519248FFF722
:100C800077FC00BF00BF20218E48FFF771FC00BF3A
:100C900000BF4FF400718B48FFF768FC00BF00BF36
:100CA0004FF400618748FFF763FC00BF00BF4FF4BB
:100CB00000518448FFF75CFC00BF00BF4FF4806127
:100CC0008048FFF753FC00BF00BF4FF480517D48C0
:100CD000FFF74CFC00BF00BF4FF480417948FFF79D
:100CE00045FC00BF00BF4FF480417748FFF740FC50
:100CF00000BF00BF40217348FFF738FC00BF00BFB2
:100D000010217048FFF732FC00BF00BFA7E000BF12
:100D100000BF4FF400416C48FFF728FC00BF00BF44
:100D20004FF400516848FFF721FC00BF00BF2021AD
:100D30006448FFF71DFC00BF00BF4FF4007161481D
:100D4000FFF714FC00BF00BF4FF400615D48FFF7E0
:100D50000DFC00BF00BF4FF400515A48FFF708FCDC
:100D600000BF00BF4FF480615648FFF7FFFB00BF94
:100D700000BF4FF480515348FFF7F8FB00BF00BF9E
:100D80004FF480414F48FFF7F1FB00BF00BF4FF425
:100D900080414D48FFF7EAFB00BF00BF40214948B2
:100DA000FFF7E4FB00BF00BF10214648FFF7DEFB62
:100DB00000BF00BF53E000BF00BF4FF400414248F6
:100DC000FFF7D6FB00BF00BF4FF400513E48FFF7CE
:100DD000CDFB00BF00BF20213A48FFF7C9FB00BF91
:100DE00000BF4FF400713748FFF7C0FB00BF00BFE2
:100DF0004FF400613348FFF7B9FB00BF00BF4FF469
:100E000000513048FFF7B4FB00BF00BF4FF48061D2
:100E10002C48FFF7ABFB00BF00BF4FF480512948BF
:100E2000FFF7A4FB00BF00BF4FF480412548FFF748
:100E30009DFB00BF00BF4FF480412348FFF796FBA6
:100E400000BF00BF40211F48FFF790FB00BF00BF5D
:100E500010211C48FFF78AFB00BF00BF00BF00BF86
:100E60001A4800780A285BD2DFE800F0055BA6F993
:100E7000F6F5F4F3F2F100BF00BF01211448FFF7CB
:100E800075FB00BF00BF02211148FFF76FFB00BFD9
:100E900000BF20210E48FFF76BFB00BF00BF802181
:100EA0000B48FFF763FB00BF00BF01210548FFF7B8
:100EB0005FFB00BF00BF10210648FFF759FB00BFD2
:100EC00000BF09E0001801400010014007000020A9
:100ED00000140140000C01400821F748FFF746FBD1
:100EE00000BF00BF0221F548FFF740FB00BF00BF75
:100EF0002021F148FFF73AFB00BF00BF0421F04872
:100F0000FFF734FB00BF00BF0821ED48FFF72EFBC1
:100F100000BF00BF4021EA48FFF728FB00BF00BF29
:100F2000B1E200BF00BF0121E548FFF721FB00BF90
:100F300000BF0221E248FFF71BFB00BF00BF2021DA
:100F4000DF48FFF715FB00BF00BF8021DC48FFF73B
:100F50000DFB00BF00BF0121D848FFF709FB00BF10
:100F600000BF1021D448FFF703FB00BF00BF0821DA
:100F7000D148FFF7FBFA00BF00BF0221CF48FFF7BF
:100F8000F5FA00BF00BF2021CB48FFF7EFFA00BF02
:100F900000BF0421CA48FFF7EBFA00BF00BF0821D9
:100FA000C748FFF7E5FA00BF00BF4021C448FFF77C
:100FB000DDFA00BF00BF66E200BF00BF0121C048EC
:100FC000FFF7D4FA00BF00BF0221BD48FFF7CEFAF9
:100FD00000BF00BF2021BA48FFF7CAFA00BF00BF18
:100FE0008021B748FFF7C4FA00BF00BF0121B34812
:100FF000FFF7BCFA00BF00BF1021AF48FFF7B8FAF7
:1010000000BF00BF0821AC48FFF7B0FA00BF00BF27
:101010000221AA48FFF7AAFA00BF00BF2021A64874
:10102000FFF7A4FA00BF00BF0421A548FFF7A0FA0C
:1010300000BF00BF0821A248FFF798FA00BF00BF19
:1010400040219F48FFF792FA00BF00BF1BE2CFE1AB
:1010500083E137E1E4E098E04CE000E015E200BF16
:1010600000BF01219648FFF783FA00BF00BF0221AD
:101070009348FFF77BFA00BF00BF20219048FFF79D
:1010800077FA00BF00BF80218D48FFF76FFA00BFDD
:1010900000BF01218948FFF769FA00BF00BF102196
:1010A0008548FFF765FA00BF00BF08218248FFF7B7
:1010B0005DFA00BF00BF02218048FFF757FA00BF6A
:1010C00000BF20217C48FFF751FA00BF00BF042178
:1010D0007B48FFF74DFA00BF00BF08217848FFF7B3
:1010E00045FA00BF00BF40217548FFF73FFA00BF37
:1010F00000BFC8E100BF00BF01217148FFF738FA07
:1011000000BF00BF02216E48FFF732FA00BF00BFE8
:1011100020216B48FFF72CFA00BF00BF80216848F0
:10112000FFF724FA00BF00BF01216448FFF71EFA51
:1011300000BF00BF10216048FFF71AFA00BF00BFD0
:1011400008215D48FFF712FA00BF00BF02215B488B
:10115000FFF70CFA00BF00BF20215748FFF706FA3F
:1011600000BF00BF04215648FFF700FA00BF00BFD0
:1011700008215348FFF7FCF900BF00BF4021504849
:10118000FFF7F4F900BF00BF7DE100BF00BF012100
:101190004B48FFF7EDF900BF00BF02214848FFF7B9
:1011A000E5F900BF00BF20214548FFF7E1F900BF86
:1011B00000BF80214248FFF7D9F900BF00BF0121DD
:1011C0003E48FFF7D3F900BF00BF10213A48FFF7B0
:1011D000CFF900BF00BF08213748FFF7C9F900BFAA
:1011E00000BF02213548FFF7C1F900BF00BF202131
:1011F0003148FFF7BBF900BF00BF04213048FFF7BB
:10120000B5F900BF00BF08212D48FFF7AFF900BFB7
:1012100000BF40212A48FFF7A9F900BF00BF32E113
:1012200000BF00BF01212648FFF7A0F900BF00BFA3
:1012300002212348FFF79AF900BF00BF2021204870
:10124000FFF796F900BF00BF80211D48FFF78EF918
:1012500000BF00BF01211948FFF788F900BF00BF98
:1012600010211548FFF784F900BF00BF082112487C
:10127000FFF77EF900BF00BF02211048FFF776F9A3
:1012800000BF00BF20210C48FFF770F900BF00BF6E
:1012900004210B48FFF76AF900BF00BF0821084886
:1012A000FFF764F900BF00BF40210548FFF75EF972
:1012B00000BF00BFE7E00000000C01400018014043
:1012C0000014014000BF00BF0121FA48FFF750F9A8
:1012D00000BF00BF0221F748FFF74AF900BF00BF77
:1012E0002021F448FFF744F900BF00BF8021F148F6
:1012F000FFF73CF900BF00BF0121EF48FFF738F9C5
:1013000000BF00BF1021ED48FFF732F900BF00BF5A
:101310000821EA48FFF72AF900BF00BF0221E6488A
:10132000FFF724F900BF00BF2021E448FFF71EF9B2
:1013300000BF00BF0421DF48FFF71AF900BF00BF5C
:101340000821DC48FFF712F900BF00BF4021D9484F
:10135000FFF70CF900BF00BF95E000BF00BF0121FF
:10136000D448FFF703F900BF00BF0221D148FFF7BF
:10137000FDF800BF00BF2021CE48FFF7F9F800BFFD
:1013800000BF8021CB48FFF7F1F800BF00BF01216B
:10139000C948FFF7EBF800BF00BF1021C748FFF7AF
:1013A000E7F800BF00BF0821C448FFF7DFF800BF1F
:1013B00000BF0221C048FFF7D9F800BF00BF2021BD
:1013C000BE48FFF7D3F800BF00BF0421B948FFF7BC
:1013D000CDF800BF00BF0821B648FFF7C7F800BF2F
:1013E00000BF4021B348FFF7C1F800BF00BF4AE08B
:1013F00000BF00BF0121AF48FFF7BAF800BF00BF30
:101400000221AC48FFF7B2F800BF00BF2021A94875
:10141000FFF7AEF800BF00BF8021A648FFF7A6F88F
:1014200000BF00BF0121A448FFF7A0F800BF00BF24
:101430001021A248FFF79CF800BF00BF08219F4879
:10144000FFF794F800BF00BF02219B48FFF78EF81A
:1014500000BF00BF20219948FFF788F800BF00BFF8
:1014600004219448FFF782F800BF00BF082191488B
:10147000FFF77CF800BF00BF40218E48FFF776F8E9
:1014800000BF00BF00BF02F089BB8D480078022872
:101490007ED18C4800780A2859D2DFE800F005593F
:1014A000AFFDFCFBFAF9F8F700BF00BF4FF40041B5
:1014B0008548FFF75BF800BF00BF4FF4005182483A
:1014C000FFF754F800BF00BF20217B48FFF750F81A
:1014D00000BF00BF4FF400717748FFF747F800BF27
:1014E00000BF4FF400617448FFF742F800BF00BF2F
:1014F0004FF400517048FFF739F800BF00BF4FF4B8
:1015000080616D48FFF732F800BF00BF4FF4805193
:101510006948FFF72DF800BF00BF4FF480416648CF
:10152000FFF724F800BF00BF4FF480416648FFF783
:101530001DF800BF00BF40215F48FFF717F800BF4C
:1015400000BF10215C48FFF711F800BF00BF0DE39A
:1015500000BF00BF4FF400415B48FFF709F800BF30
:1015600000BF4FF400515848FFF702F800BF00BF1A
:1015700020215148FEF7FCFF00BF00BF4FF400716F
:101580004D48FEF7F3FF00BF00BF4FF4006100E0DD
:10159000F2E34948FEF7ECFF00BF00BF4FF40051F3
:1015A0004548FEF7E3FF00BF00BF4FF480614248AB
:1015B000FEF7DCFF00BF00BF4FF480513E48FEF74E
:1015C000D7FF00BF00BF4FF480413B48FEF7CEFF7E
:1015D00000BF00BF4FF480413B48FEF7C9FF00BF8A
:1015E00000BF40213448FEF7C3FF00BF00BF1021F9
:1015F0003148FEF7BBFF00BF00BFB7E200BF00BF2E
:101600004FF400413048FEF7B1FF00BF00BF4FF478
:1016100000512D48FEF7AAFF00BF00BF2021264839
:10162000FEF7A6FF00BF00BF4FF400712248FEF78F
:101630009FFF00BF00BF4FF400611F48FEF796FFF9
:1016400000BF00BF4FF400511B48FEF78FFF00BFE3
:1016500000BF4FF480611848FEF788FF00BF00BF4D
:101660004FF480511448FEF783FF00BF00BF4FF4D2
:1016700080411148FEF77AFF00BF00BF4FF4804160
:101680001148FEF775FF00BF00BF06E01AE2C1E196
:101690006CE117E1C2E06DE018E040210648FEF77A
:1016A00065FF00BF00BF10210348FEF75FFF00BFCA
:1016B00000BF5BE20014014000180140000C014033
:1016C00006000020030000200010014000BF00BF02
:1016D0004FF40041F948FEF74BFF00BF00BF4FF445
:1016E0000051F648FEF742FF00BF00BF2021F4483A
:1016F000FEF73EFF00BF00BF4FF40071F048FEF759
:1017000035FF00BF00BF4FF40061ED48FEF72EFF2C
:1017100000BF00BF4FF40051E948FEF727FF00BFAC
:1017200000BF4FF48061E648FEF720FF00BF00BF16
:101730004FF48051E248FEF71BFF00BF00BF4FF49B
:101740008041DF48FEF712FF00BF00BF4FF4804129
:10175000DA48FEF70DFF00BF00BF4021D848FEF772
:1017600005FF00BF00BF1021D548FEF7FFFE00BFF8
:1017700000BFFBE100BF00BF4FF40041CF48FEF7C0
:10178000F7FE00BF00BF4FF40051CC48FEF7F0FE5B
:1017900000BF00BF2021CA48FEF7EAFE00BF00BF1D
:1017A0004FF40071C648FEF7E1FE00BF00BF4FF4E2
:1017B0000061C348FEF7DAFE00BF00BF4FF40051DE
:1017C000BF48FEF7D3FE00BF00BF4FF48061BC48A6
:1017D000FEF7CCFE00BF00BF4FF48051B848FEF7C3
:1017E000C7FE00BF00BF4FF48041B548FEF7BEFE04
:1017F00000BF00BF4FF48041B048FEF7B7FE00BF06
:1018000000BF4021AE48FEF7B3FE00BF00BF10216D
:10181000AB48FEF7ABFE00BF00BFA7E100BF00BFB3
:101820004FF40041A548FEF7A3FE00BF00BF4FF4F0
:101830000051A248FEF79AFE00BF00BF2021A04839
:10184000FEF796FE00BF00BF4FF400719C48FEF704
:101850008DFE00BF00BF4FF400619948FEF786FE81
:1018600000BF00BF4FF400519548FEF77FFE00BF58
:1018700000BF4FF480619248FEF77AFE00BF00BFC0
:101880004FF480518E48FEF773FE00BF00BF4FF447
:1018900080418B48FEF76AFE00BF00BF4FF48041D5
:1018A0008648FEF763FE00BF00BF40218448FEF774
:1018B0005DFE00BF00BF10218148FEF757FE00BF4C
:1018C00000BF53E100BF00BF4FF400417B48FEF76B
:1018D0004DFE00BF00BF4FF400517848FEF746FEB2
:1018E00000BF00BF20217648FEF742FE00BF00BFC8
:1018F0004FF400717248FEF739FE00BF00BF4FF48D
:1019000000616F48FEF732FE00BF00BF4FF4005188
:101910006B48FEF72BFE00BF00BF4FF480616848A4
:10192000FEF726FE00BF00BF4FF480516448FEF76B
:101930001FFE00BF00BF4FF480416148FEF716FE56
:1019400000BF00BF4FF480415C48FEF70FFE00BFB0
:1019500000BF40215A48FEF709FE00BF00BF10211A
:101960005748FEF703FE00BF00BFFFE000BF00BF07
:101970004FF400415148FEF7FBFD00BF00BF4FF49C
:1019800000514E48FEF7F4FD00BF00BF20214C4837
:10199000FEF7EEFD00BF00BF4FF400714848FEF7B0
:1019A000E5FD00BF00BF4FF400614548FEF7E0FDD4
:1019B00000BF00BF4FF400514148FEF7D7FD00BF04
:1019C00000BF4FF480613E48FEF7D0FD00BF00BF6E
:1019D0004FF480513A48FEF7CBFD00BF00BF4FF4F3
:1019E00080413748FEF7C2FD00BF00BF4FF4804181
:1019F0003248FEF7BDFD00BF00BF40213048FEF772
:101A0000B5FD00BF00BF10212D48FEF7AFFD00BFA0
:101A100000BFABE000BF00BF4FF400412748FEF716
:101A2000A5FD00BF00BF4FF400512448FEF79EFD06
:101A300000BF00BF20212248FEF79AFD00BF00BF73
:101A40004FF400711E48FEF791FD00BF00BF4FF438
:101A500000611B48FEF78AFD00BF00BF4FF4005134
:101A60001748FEF783FD00BF00BF4FF480611448A4
:101A7000FEF77CFD00BF00BF4FF480511048FEF719
:101A800077FD00BF00BF4FF480410D48FEF76EFDAB
:101A900000BF00BF4FF480410848FEF767FD00BF5C
:101AA00000BF40210648FEF761FD00BF00BF1021C6
:101AB0000348FEF75BFD00BF00BF57E00010014088
:101AC0000018014000BF00BF4FF40041FE48FEF780
:101AD0004FFD00BF00BF4FF40051FB48FEF746FD2D
:101AE00000BF00BF2021F948FEF742FD00BF00BF44
:101AF0004FF40071F548FEF739FD00BF00BF4FF409
:101B00000061F248FEF732FD00BF00BF4FF4005104
:101B1000EE48FEF72BFD00BF00BF4FF48061EB489D
:101B2000FEF724FD00BF00BF4FF48051E748FEF7E9
:101B30001FFD00BF00BF4FF48041E448FEF716FDD3
:101B400000BF00BF4FF48041DF48FEF70FFD00BF2C
:101B500000BF4021DD48FEF709FD00BF00BF102196
:101B6000DA48FEF703FD00BF00BF00BF00BFD84842
:101B700000780A2850D2DFE800F005509BE6FEFD11
:101B8000FCFBFAF900BF00BF0121D248FEF7EEFCD2
:101B900000BF00BF0221CF48FEF7E8FC00BF00BF36
:101BA0002021CC48FEF7E4FC00BF00BF8021C948DB
:101BB000FEF7DCFC00BF00BF0121C448FEF7D8FCE3
:101BC00000BF00BF1021C448FEF7D0FC00BF00BF1B
:101BD0000821C148FEF7CAFC00BF00BF0221BB4874
:101BE000FEF7C6FC00BF00BF2021BB48FEF7BEFCCD
:101BF00000BF00BF0421B748FEF7B8FC00BF00BF1C
:101C00000821B448FEF7B2FC00BF00BF4021B14834
:101C1000FEF7ACFC00BF00BFB5E200BF00BF012172
:101C2000AC48FEF7A5FC00BF00BF0221A948FEF7A3
:101C30009FFC00BF00BF2021A648FEF799FC00BF13
:101C400000BF8021A348FEF791FC00BF00BF012127
:101C50009E48FEF78DFC00BF00BF10219E48FEF796
:101C600085FC00BF00BF08219B48FEF77FFC00BF3A
:101C700000BF02219548FEF77BFC00BF00BF20217A
:101C80009548FEF773FC00BF00BF04219148FEF7A2
:101C90006FFC00BF00BF08218E48FEF769FC00BF43
:101CA00000BF40218B48FEF761FC00BF00BF6AE225
:101CB00000BF00BF01218748FEF758FC00BF00BFEE
:101CC00002218448FEF752FC00BF00BF202181485A
:101CD000FEF74EFC00BF00BF80217E48FEF748FCA7
:101CE00000BF00BF01217948FEF740FC00BF00BFE4
:101CF00010217948FEF73AFC00BF00BF0821764862
:101D0000FEF734FC00BF00BF02217048FEF730FC34
:101D100000BF00BF20217048FEF728FC00BF00BFB5
:101D200004216C48FEF724FC00BF00BF082169486D
:101D3000FEF71CFC00BF00BF40216648FEF716FC02
:101D400000BF00BF1FE200BF00BF01216148FEF7D6
:101D50000FFC00BF00BF02215E48FEF707FC00BF7A
:101D600000BF20215B48FEF703FC06E0C0E174E100
:101D700028E1DCE085E039E007E200BF00BF802118
:101D80005448FEF7F3FB00BF00BF01214F48FEF7A8
:101D9000EDFB00BF00BF10214F48FEF7E7FB00BF7F
:101DA00000BF08214C48FEF7E1FB00BF00BF022145
:101DB0004648FEF7DDFB00BF00BF20214648FEF786
:101DC000D5FB00BF00BF04214248FEF7D1FB00BF96
:101DD00000BF08213F48FEF7C9FB00BF00BF4021FC
:101DE0003C48FEF7C3FB00BF00BFCCE100BF00BF13
:101DF00001213848FEF7BCFB00BF00BF0221354877
:101E0000FEF7B6FB00BF00BF20213248FEF7B0FB53
:101E100000BF00BF80212F48FEF7A8FB00BF00BF16
:101E200001212A48FEF7A2FB00BF00BF10212A486B
:101E3000FEF79CFB00BF00BF08212748FEF796FB7A
:101E400000BF00BF02212148FEF792FB00BF00BF88
:101E500020212148FEF78AFB00BF00BF04211D4856
:101E6000FEF784FB00BF00BF08211A48FEF780FB85
:101E700000BF00BF40211748FEF778FB00BF00BF3E
:101E800081E100BF00BF01211248FEF771FB00BFD6
:101E900000BF02210F48FEF769FB00BF00BF2021F1
:101EA0000C48FEF765FB00BF00BF80210948FEF724
:101EB0005DFB00BF00BF01210448FEF757FB00BFD8
:101EC00000BF1021044809E0001001400018014043
:101ED0000800002000140140000C0140FEF746FB02
:101EE00000BF00BF0821FE48FEF742FB00BF00BF55
:101EF0000221FC48FEF73CFB00BF00BF2021F84850
:101F0000FEF734FB00BF00BF0421F748FEF72EFBAD
:101F100000BF00BF0821F448FEF728FB00BF00BF48
:101F20004021F148FEF722FB00BF00BF2BE100BFBC
:101F300000BF0121EC48FEF719FB00BF00BF0221E2
:101F4000E948FEF713FB00BF00BF2021E648FEF77B
:101F50000FFB00BF00BF8021E348FEF707FB00BF77
:101F600000BF0121DF48FEF701FB00BF00BF1021C9
:101F7000DB48FEF7FBFA00BF00BF0821D848FEF798
:101F8000F7FA00BF00BF0221D648FEF7F1FA00BF02
:101F900000BF2021D248FEF7E9FA00BF00BF0421AC
:101FA000D148FEF7E3FA00BF00BF0821CE48FEF794
:101FB000DDFA00BF00BF4021CB48FEF7D7FA00BFD3
:101FC00000BFE0E000BF00BF0121C748FEF7D0FA24
:101FD00000BF00BF0221C448FEF7CAFA00BF00BF1D
:101FE0002021C148FEF7C4FA00BF00BF8021BE48CF
:101FF000FEF7BCFA00BF00BF0121BA48FEF7B8FAED
:1020000000BF00BF1021B648FEF7B0FA00BF00BF06
:102010000821B348FEF7AAFA00BF00BF0221B14869
:10202000FEF7A6FA00BF00BF2021AD48FEF79EFADA
:1020300000BF00BF0421AC48FEF79AFA00BF00BF02
:102040000821A948FEF792FA00BF00BF4021A64828
:10205000FEF78CFA00BF00BF95E000BF00BF012172
:10206000A148FEF783FA00BF00BF02219E48FEF799
:102070007DFA00BF00BF20219B48FEF779FA00BF20
:1020800000BF80219848FEF771FA00BF00BF012110
:102090009448FEF76BFA00BF00BF10219048FEF78E
:1020A00065FA00BF00BF08218D48FEF75FFA00BF48
:1020B00000BF02218B48FEF75BFA00BF00BF202162
:1020C0008748FEF753FA00BF00BF04218648FEF799
:1020D0004DFA00BF00BF08218348FEF747FA00BF52
:1020E00000BF40218048FEF741FA00BF00BF4AE030
:1020F00000BF00BF01217C48FEF73AFA00BF00BFD5
:1021000002217948FEF732FA00BF00BF202176484D
:10211000FEF72EFA00BF00BF80217348FEF726FAB3
:1021200000BF00BF01216F48FEF720FA00BF00BFCB
:1021300010216B48FEF71AFA00BF00BF082168485B
:10214000FEF714FA00BF00BF02216648FEF710FA3E
:1021500000BF00BF20216248FEF708FA00BF00BFA1
:1021600004216148FEF702FA00BF00BF08215E4863
:10217000FEF7FCF900BF00BF40215B48FEF7F6F90F
:1021800000BF00BF00BF01F009BD58480078032818
:102190007ED1574800780A2859D2DFE800F0055967
:1021A000BCFCFBFAF9F8F7F600BF00BF4FF40041A2
:1021B0005048FEF7DBF900BF00BF4FF400514D4817
:1021C000FEF7D4F900BF00BF20214648FEF7CEF944
:1021D00000BF00BF4FF400714248FEF7C7F900BFCF
:1021E00000BF4FF400613F48FEF7C2F900BF00BFD7
:1021F0004FF400513B48FEF7B9F900BF00BF4FF460
:1022000080613848FEF7B2F900BF00BF4FF480513B
:102210003448FEF7ABF900BF00BF4FF480413148AE
:10222000FEF7A6F900BF00BF4FF480413148FEF72A
:102230009DF900BF00BF40212A48FEF797F900BF73
:1022400000BF10212748FEF791F900BF00BF10E33F
:1022500000BF00BF4FF400412648FEF789F900BFD8
:1022600000BF4FF400512348FEF782F900BF00BFC2
:1022700020211C48FEF77AF900BF00BF4FF400711F
:102280001848FEF773F900BF00BF4FF4006100E08B
:10229000F3E31448FEF76CF900BF00BF4FF40051A0
:1022A0001048FEF763F900BF00BF4FF480610D488E
:1022B000FEF75CF900BF00BF4FF480510948FEF7FC
:1022C00055F900BF00BF4FF480410648FEF750F9B2
:1022D00000BF00BF4FF480410648FEF749F90BE00C
:1022E000000C0140001801400014014006000020CD
:1022F000040000200010014000BF00BF4021FE4844
:10230000FEF736F900BF00BF1021FB48FEF72EF99B
:1023100000BF00BFADE200BF00BF4FF40041F7486F
:10232000FEF724F900BF00BF4FF40051F348FEF759
:102330001DF900BF00BF2021EF48FEF717F900BFCD
:1023400000BF4FF40071EC48FEF712F900BF00BF68
:102350004FF40061E848FEF709F900BF00BF4FF4F1
:102360000051E548FEF702F900BF00BF4FF480615D
:10237000E148FEF7FBF800BF00BF4FF48051DE4894
:10238000FEF7F4F800BF00BF06E01EE2C9E16EE10F
:1023900019E1C4E06FE01AE04FF48041D648FEF73F
:1023A000E7F800BF00BF4FF48041D448FEF7E0F8E3
:1023B00000BF00BF4021D048FEF7D8F800BF00BFE3
:1023C0001021CD48FEF7D2F800BF00BF51E200BF98
:1023D00000BF4FF40041C948FEF7CAF800BF00BF74
:1023E0004FF40051C548FEF7C1F800BF00BF2021DF
:1023F000C148FEF7BBF800BF00BF4FF40071BE48F4
:10240000FEF7B4F800BF00BF4FF40061BA48FEF712
:10241000ADF800BF00BF4FF40051B748FEF7A6F873
:1024200000BF00BF4FF48061B348FEF79FF800BFC4
:1024300000BF4FF48051B048FEF798F800BF00BFCE
:102440004FF48041AC48FEF793F800BF00BF4FF453
:102450008041AA48FEF78CF800BF00BF4021A64883
:10246000FEF784F800BF00BF1021A348FEF77EF8F6
:1024700000BF00BFFDE100BF00BF4FF400419F4817
:10248000FEF776F800BF00BF4FF400519B48FEF7FF
:102490006FF800BF00BF20219748FEF767F800BF24
:1024A00000BF4FF400719448FEF760F800BF00BF12
:1024B0004FF400619048FEF759F800BF00BF4FF499
:1024C00000518D48FEF752F800BF00BF4FF4806105
:1024D0008948FEF74BF800BF00BF4FF48051864893
:1024E000FEF744F800BF00BF4FF480418248FEF77A
:1024F0003FF800BF00BF4FF480418048FEF736F838
:1025000000BF00BF40217C48FEF732F800BF00BF8B
:1025100010217948FEF72AF800BF00BFA9E100BFEB
:1025200000BF4FF400417548FEF722F800BF00BF1E
:102530004FF400517148FEF719F800BF00BF202189
:102540006D48FEF713F800BF00BF4FF400716A48F2
:10255000FEF70CF800BF00BF4FF400616648FEF7BD
:1025600005F800BF00BF4FF400516348FDF7FEFFC0
:1025700000BF00BF4FF480615F48FDF7F9FF00BF67
:1025800000BF4FF480515C48FDF7F0FF00BF00BF73
:102590004FF480415848FDF7EBFF00BF00BF4FF4F8
:1025A00080415648FDF7E2FF00BF00BF402152487E
:1025B000FDF7DCFF00BF00BF10214F48FDF7D6FF3D
:1025C00000BF00BF55E100BF00BF4FF400414B48C2
:1025D000FDF7CCFF00BF00BF4FF400514748FDF7A7
:1025E000C5FF00BF00BF20214348FDF7BFFF00BF6C
:1025F00000BF4FF400714048FDF7B8FF00BF00BFB7
:102600004FF400613C48FDF7B1FF00BF00BF4FF43D
:1026100000513948FDF7AAFF00BF00BF4FF48061A9
:102620003548FDF7A5FF00BF00BF4FF48051324889
:10263000FDF79CFF00BF00BF4FF480412E48FDF71F
:1026400097FF00BF00BF4FF480412C48FDF78EFF7D
:1026500000BF00BF40212848FDF788FF00BF00BF32
:1026600010212548FDF782FF00BF00BF01E100BF38
:1026700000BF4FF400412148FDF77AFF00BF00BFC3
:102680004FF400511D48FDF773FF00BF00BF20212C
:102690001948FDF76BFF00BF00BF4FF400711648EB
:1026A000FDF764FF00BF00BF4FF400611248FDF763
:1026B0005FFF00BF00BF4FF400510F48FDF756FF0A
:1026C00000BF00BF4FF480610B48FDF74FFF00BF14
:1026D00000BF4FF480510848FDF748FF00BF00BF1E
:1026E0004FF480410448FDF743FF00BF00BF4FF4A3
:1026F0008041024804E00000001801400010014041
:10270000FDF736FF00BF00BF4021FA48FDF72EFF5E
:1027100000BF00BF1021F748FDF728FF00BF00BF32
:10272000A7E000BF00BF4FF40041F348FDF71EFFD4
:1027300000BF00BF4FF40051EF48FDF717FF00BF87
:1027400000BF2021EB48FDF711FF00BF00BF4FF491
:102750000071E848FDF70AFF00BF00BF4FF40061B9
:10276000E448FDF703FF00BF00BF4FF40051E1480C
:10277000FDF7FCFE00BF00BF4FF48061DD48FDF7B0
:10278000F5FE00BF00BF4FF48051DA48FDF7EEFEC2
:1027900000BF00BF4FF48041D648FDF7E9FE00BFFF
:1027A00000BF4FF48041D448FDF7E0FE00BF00BFFA
:1027B0004021D048FDF7DAFE00BF00BF1021CD4810
:1027C000FDF7D4FE00BF00BF53E000BF00BF4FF4D1
:1027D0000041C948FDF7CCFE00BF00BF4FF40051D7
:1027E000C548FDF7C3FE00BF00BF2021C148FDF76B
:1027F000BDFE00BF00BF4FF40071BE48FDF7B6FE3E
:1028000000BF00BF4FF40061BA48FDF7AFFE00BF44
:1028100000BF4FF40051B748FDF7A8FE00BF00BF4E
:102820004FF48061B348FDF7A1FE00BF00BF4FF435
:102830008051B048FDF79AFE00BF00BF4FF48041C1
:10284000AC48FDF795FE00BF00BF4FF48041AA4899
:10285000FDF78CFE00BF00BF4021A648FDF786FEB5
:1028600000BF00BF1021A348FDF780FE00BF00BFDE
:1028700000BF00BFA14800780A2850D2DFE800F06E
:1028800005509BE6FCFBFAF9F8F700BF00BF0121F9
:102890009B48FDF76BFE00BF00BF02219848FDF783
:1028A00065FE00BF00BF20219548FDF75FFE00BF19
:1028B00000BF80219248FDF759FE00BF00BF0121F3
:1028C0008C48FDF755FE00BF00BF10218D48FDF775
:1028D0004DFE00BF00BF08218A48FDF747FE00BF3C
:1028E00000BF02218348FDF741FE00BF00BF202149
:1028F0008448FDF73DFE00BF00BF04218048FDF77E
:1029000035FE00BF00BF08217D48FDF72FFE00BF48
:1029100000BF40217A48FDF729FE00BF00BFB5E2A5
:1029200000BF00BF01217648FDF722FE00BF00BFB7
:1029300002217348FDF71CFE00BF00BF2021704834
:10294000FDF714FE00BF00BF80216D48FDF70EFEAD
:1029500000BF00BF01216748FDF70AFE00BF00BFAE
:1029600010216848FDF702FE00BF00BF082165483E
:10297000FDF7FCFD00BF00BF02215E48FDF7F6FD3C
:1029800000BF00BF20215F48FDF7F2FD00BF00BF80
:1029900004215B48FDF7ECFD00BF00BF082158484B
:1029A000FDF7E6FD00BF00BF40215548FDF7DEFD05
:1029B00000BF00BF6AE200BF00BF01215048FDF721
:1029C000D5FD00BF00BF02214D48FDF7CFFD00BF80
:1029D00000BF20214A48FDF7C9FD00BF00BF80218C
:1029E0004748FDF7C5FD00BF00BF01214148FDF785
:1029F000BDFD00BF00BF10214248FDF7B7FD00BF7D
:102A000000BF08213F48FDF7B1FD00BF00BF022114
:102A10003848FDF7ABFD00BF00BF20213948FDF766
:102A2000A7FD00BF00BF04213548FDF7A1FD00BF91
:102A300000BF08213248FDF799FD00BF00BF4021CB
:102A40002F48FDF793FD00BF00BF1FE200BF00BF8E
:102A500001212B48FDF78CFD00BF00BF0221284853
:102A6000FDF784FD00BF00BF2021254806E0C2E13C
:102A700076E12AE1DEE092E046E008E2FDF776FD4D
:102A800000BF00BF80211E48FDF770FD00BF00BFE2
:102A900001211848FDF76AFD00BF00BF1021194849
:102AA000FDF764FD00BF00BF08211648FDF75EFD7D
:102AB00000BF00BF02210F48FDF758FD00BF00BF57
:102AC00020211048FDF754FD00BF00BF04210C4831
:102AD000FDF74EFD00BF00BF08210948FDF746FD88
:102AE00000BF00BF40210648FDF740FD00BF00BF0A
:102AF000CCE1000000180140001001400900002056
:102B000000140140000C014000BF00BF0121FE483D
:102B1000FDF72EFD00BF00BF0221FB48FDF728FD99
:102B200000BF00BF2021F848FDF720FD00BF00BF17
:102B30008021F548FDF71AFD00BF00BF0121F348D1
:102B4000FDF714FD00BF00BF1021F148FDF70EFD99
:102B500000BF00BF0821EE48FDF708FD00BF00BF21
:102B60000221EA48FDF702FD00BF00BF2021E8482E
:102B7000FDF7FEFC00BF00BF0421E348FDF7F6FCB3
:102B800000BF00BF0821E048FDF7F2FC00BF00BF16
:102B90004021DD48FDF7EAFC00BF00BF76E100BF41
:102BA00000BF0121D848FDF7E3FC00BF00BF0221B0
:102BB000D548FDF7DBFC00BF00BF2021D248FDF760
:102BC000D5FC00BF00BF8021CF48FDF7CFFC00BF80
:102BD00000BF0121CD48FDF7C9FC00BF00BF102197
:102BE000CB48FDF7C3FC00BF00BF0821C848FDF774
:102BF000BFFC00BF00BF0221C448FDF7B7FC00BF07
:102C000000BF2021C248FDF7B3FC00BF00BF042174
:102C1000BD48FDF7ABFC00BF00BF0821BA48FDF777
:102C2000A5FC00BF00BF4021B748FDF79FFC00BFD7
:102C300000BF2BE100BF00BF0121B348FDF796FCA8
:102C400000BF00BF0221B048FDF790FC00BF00BFED
:102C50002021AD48FDF78AFC00BF00BF8021AA48B3
:102C6000FDF784FC00BF00BF0121A848FDF77EFCF2
:102C700000BF00BF1021A648FDF778FC00BF00BFD1
:102C80000821A348FDF774FC00BF00BF02219F4844
:102C9000FDF76CFC00BF00BF20219D48FDF768FCDC
:102CA00000BF00BF04219848FDF760FC00BF00BFD3
:102CB00008219548FDF75AFC00BF00BF402192480B
:102CC000FDF754FC00BF00BFE0E000BF00BF0121E2
:102CD0008D48FDF74DFC00BF00BF02218A48FDF77B
:102CE00047FC00BF00BF20218748FDF73FFC00BF25
:102CF00000BF80218448FDF739FC00BF00BF0121DF
:102D00008248FDF735FC00BF00BF10218048FDF769
:102D10002DFC00BF00BF08217D48FDF727FC00BF48
:102D200000BF02217948FDF721FC00BF00BF202130
:102D30007748FDF71DFC00BF00BF04217248FDF776
:102D400017FC00BF00BF08216F48FDF70FFC00BF54
:102D500000BF40216C48FDF709FC00BF00BF95E0B3
:102D600000BF00BF01216848FDF700FC00BF00BFA5
:102D700002216548FDF7FAFB00BF00BF2021624831
:102D8000FDF7F4FB00BF00BF80215F48FDF7EEFBBD
:102D900000BF00BF01215D48FDF7E8FB00BF00BF99
:102DA00010215B48FDF7E2FB00BF00BF0821584837
:102DB000FDF7DCFB00BF00BF02215448FDF7D6FB46
:102DC00000BF00BF20215248FDF7D2FB00BF00BF6B
:102DD00004214D48FDF7CAFB00BF00BF08214A4847
:102DE000FDF7C4FB00BF00BF40214748FDF7BEFB15
:102DF00000BF00BF4AE000BF00BF01214248FDF70D
:102E0000B7FB00BF00BF02213F48FDF7AFFB00BF8B
:102E100000BF20213C48FDF7A9FB00BF00BF802177
:102E20003948FDF7A3FB00BF00BF01213748FDF77C
:102E30009DFB00BF00BF10213548FDF797FB00BF89
:102E400000BF08213248FDF791FB00BF00BF0221FF
:102E50002E48FDF78BFB00BF00BF20212C48FDF75B
:102E600087FB00BF00BF04212748FDF77FFB00BFA1
:102E700000BF08212448FDF779FB00BF00BF4021B7
:102E80002148FDF773FB00BF00BF00BFFEE32148F0
:102E900000780428FAD1204800780A2866D2DFE8B2
:102EA00000F00566BAFDFCFBFAF9F8F700BF00BFB9
:102EB0004FF400411948FDF759FB00BF00BF4FF424
:102EC00000511648FDF752FB00BF00BF20210F48FC
:102ED000FDF74EFB00BF00BF4FF400710B48FDF73C
:102EE00045FB00BF00BF4FF400610848FDF740FB01
:102EF00000BF00BF4FF400510448FDF737FB00BF8F
:102F000000BF4FF480610BE0001401400018014045
:102F1000000C0140060000200500002000100140C8
:102F2000FE48FDF723FB00BF00BF4FF48051FB4874
:102F3000FDF71CFB00BF00BF4FF48041F748FDF7D1
:102F400015FB00BF00BF4FF48041F548FDF70EFBB5
:102F500000BF00BF4021F148FDF708FB00BF00BFE4
:102F60001021EE48FDF704FB00BF00BF00E300BFE7
:102F700000BF4FF40041EA48FDF7FAFA00BF00BF76
:102F80004FF40051E648FDF7F3FA00BF00BF2021DF
:102F9000E248FDF7EDFA00BF00BF4FF40071DF48D3
:102FA000FDF7E4FA00BF00BF4FF40061DB48FDF716
:102FB000DFFA00BF00BF4FF40051D848FDF7D6FA42
:102FC00000BF00BF4FF48061D448FDF7CFFA00BFC7
:102FD00000BF4FF48051D148FDF7C8FA00BF00BFD1
:102FE0004FF48041CD48FDF7C1FA00BF00BF4FF458
:102FF0008041CB48FDF7BCFA00BF00BF4021C74865
:10300000FDF7B6FA00BF00BF1021C448FDF7B0FAC3
:1030100000BF00BFACE200BF00BF4FF40041C0489A
:10302000FDF7A4FA00BF00BF4FF40051BC48FDF704
:103030009DFA00BF00BF2021B848FDF799FA00BFF4
:1030400000BF4FF40071B548FDF792FA00BF00BF12
:103050004FF40061B148FDF789FA00BF00BF4FF49B
:103060000051AE48FDF782FA00BF00BF4FF4806107
:10307000AA48FDF77BFA00BF00BF4FF48051A74874
:10308000FDF774FA00BF00BF4FF48041A34806E08B
:103090001AE2C5E170E116E1C1E06CE017E0FDF76E
:1030A00065FA00BF00BF4FF480419D48FDF760FA0C
:1030B00000BF00BF40219948FDF758FA00BF00BF8C
:1030C00010219648FDF754FA00BF00BF50E200BF40
:1030D00000BF4FF400419248FDF74AFA00BF00BF1D
:1030E0004FF400518E48FDF741FA00BF00BF202188
:1030F0008A48FDF73DFA00BF00BF4FF400718748D2
:10310000FDF734FA00BF00BF4FF400618348FDF7BC
:103110002DFA00BF00BF4FF400518048FDF726FA9A
:1031200000BF00BF4FF480617C48FDF71FFA00BF6D
:1031300000BF4FF480517948FDF718FA00BF00BF77
:103140004FF480417548FDF711FA00BF00BF4FF4FE
:1031500080417348FDF70CFA00BF00BF40216F4863
:10316000FDF704FA00BF00BF10216C48FDF700FA1C
:1031700000BF00BFFCE100BF00BF4FF40041684842
:10318000FDF7F6F900BF00BF4FF400516448FDF7AA
:10319000EFF900BF00BF20216048FDF7E9F900BF4B
:1031A00000BF4FF400715D48FDF7E0F900BF00BFBC
:1031B0004FF400615948FDF7D9F900BF00BF4FF443
:1031C00000515648FDF7D2F900BF00BF4FF48061AF
:1031D0005248FDF7CBF900BF00BF4FF480514F4874
:1031E000FDF7C4F900BF00BF4FF480414B48FDF725
:1031F000BDF900BF00BF4FF480414948FDF7B6F963
:1032000000BF00BF40214548FDF7B2F900BF00BF35
:1032100010214248FDF7ACF900BF00BFA8E100BF94
:1032200000BF4FF400413E48FDF7A2F900BF00BFC8
:103230004FF400513A48FDF799F900BF00BF202133
:103240003648FDF795F900BF00BF4FF400713348D1
:10325000FDF78CF900BF00BF4FF400612F48FDF768
:1032600085F900BF00BF4FF400512C48FDF77EF9EF
:1032700000BF00BF4FF480612848FDF779F900BF17
:1032800000BF4FF480512548FDF770F900BF00BF23
:103290004FF480412148FDF769F900BF00BF4FF4AA
:1032A00080411F48FDF762F900BF00BF40211B4865
:1032B000FDF75CF900BF00BF10211848FDF758F971
:1032C00000BF00BF54E100BF00BF4FF400411448ED
:1032D000FDF74CF900BF00BF4FF400511048FDF757
:1032E00045F900BF00BF20210C48FDF741F900BFA0
:1032F00000BF4FF400710948FDF738F900BF00BF67
:103300004FF400610548FDF731F900BF00BF4FF4ED
:1033100000510248FDF72AF900BF03E00018014000
:103320000010014000BF4FF48061FE48FDF720F916
:1033300000BF00BF4FF48051FA48FDF717F900BFF6
:1033400000BF4FF48041F748FDF710F900BF00BF00
:103350004FF48041F448FDF709F900BF00BF402158
:10336000F048FDF703F900BF00BF1021ED48FDF75D
:10337000FFF800BF00BFFBE000BF00BF4FF40041FB
:10338000E948FDF7F5F800BF00BF4FF40051E648EB
:10339000FDF7EEF800BF00BF2021E248FDF7E8F896
:1033A00000BF00BF4FF40071DE48FDF7DFF800BF3B
:1033B00000BF4FF40061DB48FDF7DAF800BF00BF43
:1033C0004FF40051D748FDF7D1F800BF00BF4FF4CC
:1033D0008061D448FDF7CAF800BF00BF4FF48051A8
:1033E000D048FDF7C3F800BF00BF4FF48041CD487F
:1033F000FDF7BCF800BF00BF4FF48041CA48FDF79D
:10340000B7F800BF00BF4021C648FDF7AFF800BFC6
:1034100000BF1021C348FDF7ABF800BF00BFA7E015
:1034200000BF00BF4FF40041BF48FDF79FF800BF49
:1034300000BF4FF40051BC48FDF798F800BF00BF33
:103440002021B848FDF794F800BF00BF4FF4007189
:10345000B448FDF78BF800BF00BF4FF40061B148DE
:10346000FDF784F800BF00BF4FF40051AD48FDF7F1
:103470007DF800BF00BF4FF48061AA48FDF776F8E1
:1034800000BF00BF4FF48051A648FDF76FF800BFA2
:1034900000BF4FF48041A348FDF768F800BF00BFAC
:1034A0004FF48041A048FDF761F800BF00BF402104
:1034B0009C48FDF75BF800BF00BF10219948FDF75D
:1034C00057F800BF00BF53E000BF00BF4FF40041FA
:1034D0009548FDF74DF800BF00BF4FF400519248EA
:1034E000FDF744F800BF00BF20218E48FDF740F8EB
:1034F00000BF00BF4FF400718A48FDF737F800BFE6
:1035000000BF4FF400618748FDF730F800BF00BFEF
:103510004FF400518348FDF729F800BF00BF4FF476
:1035200080618048FDF722F800BF00BF4FF4805152
:103530007C48FDF71BF800BF00BF4FF4804179487D
:10354000FDF714F800BF00BF4FF480417648FDF747
:103550000DF800BF00BF40217248FDF707F800BF1B
:1035600000BF10216F48FDF703F800BF00BF00BF88
:1035700000BF6E4800780A2850D2DFE800F00550FE
:103580009DFAF8F7F6F5F4D200BF00BF01216848B4
:10359000FCF7ECFF00BF00BF02216548FCF7E6FF27
:1035A00000BF00BF20216248FCF7E2FF00BF00BF60
:1035B00080215F48FCF7DAFF00BF00BF01215948B6
:1035C000FCF7D6FF00BF00BF10215A48FCF7CEFF22
:1035D00000BF00BF08215748FCF7C8FF00BF00BF6D
:1035E00002215048FCF7C2FF00BF00BF2021514814
:1035F000FCF7BCFF00BF00BF04214D48FCF7B6FF3D
:1036000000BF00BF08214A48FCF7B0FF00BF00BF61
:1036100040214748FCF7ACFF00BF00BFBDE200BF40
:1036200000BF01214248FCF7A3FF00BF00BF0221F9
:103630003F48FCF79DFF00BF00BF20213C48FCF73E
:1036400097FF00BF00BF80213948FCF78FFF00BF04
:1036500000BF01213348FCF78BFF00BF00BF1021E2
:103660003448FCF783FF00BF00BF08213148FCF756
:103670007DFF00BF00BF02212A48FCF777FF00BF93
:1036800000BF20212B48FCF771FF00E086E200BF5D
:1036900000BF04212648FCF76BFF00BF00BF0821D4
:1036A0002348FCF765FF00BF00BF40212048FCF71E
:1036B0005FFF00BF00BF70E200BF00BF01211C48D8
:1036C000FCF754FF00BF00BF02211948FCF74EFF72
:1036D00000BF00BF20211648FCF74AFF00BF00BF13
:1036E00080211348FCF744FF00BF00BF01210D48B3
:1036F000FCF73CFF00BF00BF10210E48FCF736FF6F
:1037000000BF00BF08210B48FCF730FF00BF00BF1F
:1037100002210448FCF72AFF00BF00BF2021054812
:103720000AE0E8E100180140001001400A00002012
:1037300000140140000C0140FCF718FF00BF00BF5F
:103740000421FE48FCF714FF00BF00BF0821FB481E
:10375000FCF70CFF00BF00BF4021F848FCF708FF52
:1037600000BF00BF19E27BE12FE1E3E097E04BE00F
:10377000FFE700BF00BF0121F048FCF7F9FE00BFE2
:1037800000BF0221ED48FCF7F1FE00BF00BF202181
:10379000EA48FCF7EDFE00BF00BF8021E748FCF7D8
:1037A000E5FE00BF00BF0121E548FCF7DFFE00BFDA
:1037B00000BF1021E348FCF7D9FE00BF00BF08217D
:1037C000E048FCF7D3FE00BF00BF0221DC48FCF755
:1037D000CDFE00BF00BF2021DA48FCF7C7FE00BFC6
:1037E00000BF0421D548FCF7C3FE00BF00BF08217D
:1037F000D248FCF7BBFE00BF00BF4021CF48FCF71A
:10380000B7FE00BF00BFC8E100BF00BF0121CB4829
:10381000FCF7AEFE00BF00BF0221C848FCF7A8FEBF
:1038200000BF00BF2021C548FCF7A2FE00BF00BFBB
:103830008021C248FCF79AFE00BF00BF0121C048AA
:10384000FCF794FE00BF00BF1021BE48FCF78EFEBF
:1038500000BF00BF0821BB48FCF788FE00BF00BFC7
:103860000221B748FCF782FE00BF00BF2021B54807
:10387000FCF77CFE00BF00BF0421B048FCF776FED9
:1038800000BF00BF0821AD48FCF772FE00BF00BFBB
:103890004021AA48FCF76CFE00BF00BF7DE100BFDD
:1038A00000BF0121A548FCF763FE00BF00BF022155
:1038B000A248FCF75BFE00BF00BF20219F48FCF739
:1038C00057FE00BF00BF80219C48FCF74FFE00BFA1
:1038D00000BF01219A48FCF749FE00BF00BF10213C
:1038E0009848FCF743FE00BF00BF08219548FCF74D
:1038F0003FFE00BF00BF02219148FCF737FE00BF2A
:1039000000BF20218F48FCF731FE00BF00BF04211B
:103910008A48FCF72BFE00BF00BF08218748FCF750
:1039200025FE00BF00BF40218448FCF721FE00BFF8
:1039300000BF32E100BF00BF01218048FCF716FE46
:1039400000BF00BF02217D48FCF710FE00BF00BF92
:1039500020217A48FCF70CFE00BF00BF8021774889
:10396000FCF704FE00BF00BF01217548FCF7FEFD17
:1039700000BF00BF10217348FCF7F8FD00BF00BF77
:1039800008217048FCF7F4FD00BF00BF02216C481D
:10399000FCF7ECFD00BF00BF20216A48FCF7E6FD04
:1039A00000BF00BF04216548FCF7E0FD00BF00BF79
:1039B00008216248FCF7DAFD00BF00BF40215F48E4
:1039C000FCF7D6FD00BF00BFE7E000BF00BF01214C
:1039D0005A48FCF7CDFD00BF00BF02215748FCF755
:1039E000C7FD00BF00BF20215448FCF7C1FD00BF48
:1039F00000BF80215148FCF7B9FD00BF00BF012185
:103A00004F48FCF7B5FD00BF00BF10214D48FCF743
:103A1000ADFD00BF00BF08214A48FCF7A7FD00BF6D
:103A200000BF02214648FCF7A1FD00BF00BF2021D6
:103A30004448FCF79BFD00BF00BF04213F48FCF752
:103A400097FD00BF00BF08213C48FCF78FFD00BF79
:103A500000BF40213948FCF78BFD00BF00BF9CE050
:103A600000BF00BF01213548FCF780FD00BF00BF4B
:103A700002213248FCF77AFD00BF00BF20212F4809
:103A8000FCF776FD00BF00BF80212C48FCF76EFDDF
:103A900000BF00BF01212A48FCF768FD00BF00BF3E
:103AA00010212848FCF762FD00BF00BF082125480F
:103AB000FCF75CFD00BF00BF02212148FCF756FD6A
:103AC00000BF00BF20211F48FCF750FD00BF00BF12
:103AD00004211A48FCF74AFD00BF00BF082117481F
:103AE000FCF744FD00BF00BF40211448FCF740FD37
:103AF00000BF00BF51E000BF00BF01210F48FCF72D
:103B000037FD00BF00BF02210C48FCF72FFD00BFAE
:103B100000BF20210948FCF72BFD00BF00BF80211A
:103B20000648FCF723FD00BF00BF01210448FCF755
:103B30001DFD00BF00BF1021024805E00014014038
:103B400000180140000C0140FCF710FD00BF00BF51
:103B500008211948FCF70AFD00BF00BF02211748E1
:103B6000FCF704FD00BF00BF20211348FCF7FEFC5A
:103B700000BF00BF04211248FCF7F8FC00BF00BFE3
:103B800008210F48FCF7F2FC00BF00BF40210C48A1
:103B9000FCF7EEFC00BF00BF00BF00BF0948007883
:103BA000401C0849087008460078052801D101200A
:103BB0000870BDE8F0810000000C014000180140D1
:103BC000001401400600002010B51348006840F0C2
:103BD00001001149086008464068104908400E4934
:103BE0004860084600680E4908400B4908600846CE
:103BF000006820F4802008600846406820F4FE0039
:103C000048604FF41F008860FCF7CBFC4FF0006069
:103C10000449086010BD0000001002400000FFF8D9
:103C2000FFFFF6FE08ED00E000BFFEE702E008C877
:103C3000121F08C1002AFAD170477047002001E026
:103C400001C1121F002AFBD1704700F003F800BF2A
:103C5000FEE7000038B5FFF7B7FF01217920FCF738
:103C60008FFC01213F48FCF739FC3F49B1F1807FCF
:103C700000D31DE021F07F40401E4FF0E022506154
:103C800050170F22002807DA13071D0E374B00F0DC
:103C90000F04241F1D5503E013071C0E344B1C5446
:103CA00000BF00204FF0E02290610720106100BFAC
:103CB00001203049087000202F4908802F490870E2
:103CC0002F4908702F4908702F4908702F49087034
:103CD0002F4908702F4908702F4908703820ADF817
:103CE000000003208DF8020010208DF803006946C3
:103CF0002A48FCF769FB0320ADF800008DF80200AC
:103D000010208DF8030069462548FCF75DFB40F262
:103D1000EF40ADF8000003208DF8020010208DF870
:103D2000030069461F48FCF74FFB4FF46040ADF8B5
:103D3000000003208DF8020010208DF80300694672
:103D40001948FCF741FB47F67060ADF8000003200E
:103D50008DF8020010208DF8030069461048FCF72A
:103D600033FB38BD000230004019010018ED00E0BF
:103D700000E400E006000020000000200200002017
:103D800003000020040000200500002007000020A0
:103D900008000020090000200A000020000C01405B
:103DA000001801400014014000100140CC3D000803
:103DB000000000200C0000002C3C0008D83D00084A
:103DC0000C000020040400003C3C0008000000003F
:083DD0000000000000000000EB
:0400000508000131BD
:00000001FF
